{"abi":[{"type":"constructor","inputs":[{"name":"evc","type":"address","internalType":"address"},{"name":"owner","type":"address","internalType":"address"},{"name":"_corkPoolManager","type":"address","internalType":"address"},{"name":"_poolId","type":"bytes32","internalType":"bytes32"},{"name":"_refVault","type":"address","internalType":"address"},{"name":"_cstVault","type":"address","internalType":"address"},{"name":"_vbUSDC","type":"address","internalType":"address"},{"name":"_cstToken","type":"address","internalType":"address"},{"name":"_sUsdeToken","type":"address","internalType":"address"}],"stateMutability":"nonpayable"},{"type":"function","name":"EVC","inputs":[],"outputs":[{"name":"","type":"address","internalType":"address"}],"stateMutability":"view"},{"type":"function","name":"corkPoolManager","inputs":[],"outputs":[{"name":"","type":"address","internalType":"address"}],"stateMutability":"view"},{"type":"function","name":"cstToken","inputs":[],"outputs":[{"name":"","type":"address","internalType":"address"}],"stateMutability":"view"},{"type":"function","name":"cstVault","inputs":[],"outputs":[{"name":"","type":"address","internalType":"address"}],"stateMutability":"view"},{"type":"function","name":"getCustomLiquidationVaults","inputs":[],"outputs":[{"name":"","type":"address[]","internalType":"address[]"}],"stateMutability":"view"},{"type":"function","name":"isCustomLiquidationVault","inputs":[{"name":"vault","type":"address","internalType":"address"}],"outputs":[{"name":"","type":"bool","internalType":"bool"}],"stateMutability":"view"},{"type":"function","name":"liquidate","inputs":[{"name":"receiver","type":"address","internalType":"address"},{"name":"liability","type":"address","internalType":"address"},{"name":"violator","type":"address","internalType":"address"},{"name":"collateral","type":"address","internalType":"address"},{"name":"repayAssets","type":"uint256","internalType":"uint256"},{"name":"minYieldBalance","type":"uint256","internalType":"uint256"}],"outputs":[],"stateMutability":"nonpayable"},{"type":"function","name":"owner","inputs":[],"outputs":[{"name":"","type":"address","internalType":"address"}],"stateMutability":"view"},{"type":"function","name":"poolId","inputs":[],"outputs":[{"name":"","type":"bytes32","internalType":"bytes32"}],"stateMutability":"view"},{"type":"function","name":"refVault","inputs":[],"outputs":[{"name":"","type":"address","internalType":"address"}],"stateMutability":"view"},{"type":"function","name":"renounceOwnership","inputs":[],"outputs":[],"stateMutability":"nonpayable"},{"type":"function","name":"sUsdeToken","inputs":[],"outputs":[{"name":"","type":"address","internalType":"address"}],"stateMutability":"view"},{"type":"function","name":"setCustomLiquidationVault","inputs":[{"name":"vault","type":"address","internalType":"address"},{"name":"enabled","type":"bool","internalType":"bool"}],"outputs":[],"stateMutability":"nonpayable"},{"type":"function","name":"transferOwnership","inputs":[{"name":"newOwner","type":"address","internalType":"address"}],"outputs":[],"stateMutability":"nonpayable"},{"type":"function","name":"vbUSDC","inputs":[],"outputs":[{"name":"","type":"address","internalType":"address"}],"stateMutability":"view"},{"type":"event","name":"CustomLiquidationVaultSet","inputs":[{"name":"vault","type":"address","indexed":true,"internalType":"address"},{"name":"enabled","type":"bool","indexed":false,"internalType":"bool"}],"anonymous":false},{"type":"event","name":"OwnershipTransferred","inputs":[{"name":"previousOwner","type":"address","indexed":true,"internalType":"address"},{"name":"newOwner","type":"address","indexed":true,"internalType":"address"}],"anonymous":false},{"type":"error","name":"ControllerDisabled","inputs":[]},{"type":"error","name":"EVC_InvalidAddress","inputs":[]},{"type":"error","name":"LiquidateViaRefVaultOnly","inputs":[]},{"type":"error","name":"NotAuthorized","inputs":[]},{"type":"error","name":"OwnableInvalidOwner","inputs":[{"name":"owner","type":"address","internalType":"address"}]},{"type":"error","name":"OwnableUnauthorizedAccount","inputs":[{"name":"account","type":"address","internalType":"address"}]},{"type":"error","name":"SafeERC20FailedOperation","inputs":[{"name":"token","type":"address","internalType":"address"}]}],"bytecode":{"object":"0x61018060405234801562000011575f80fd5b506040516200265038038062002650833981016040819052620000349162000302565b888862000042878762000196565b81836001600160a01b0381166200006c57604051638133abd160e01b815260040160405180910390fd5b6001600160a01b039081166080528116620000a057604051631e4fbdf760e01b81525f600482015260240160405180910390fd5b620000ab8162000229565b505f5b81518110156200015757620000ea828281518110620000d157620000d1620003ae565b602002602001015160016200027860201b90919060201c565b50818181518110620001005762000100620003ae565b60200260200101516001600160a01b03167f576c603e90c7c88544e6bfa56180af33c55d1dfcef81dec612923dec83880ef5600160405162000146911515815260200190565b60405180910390a2600101620000ae565b5050506001600160a01b0397881660a0525060c09590955292851660e05290841661010052831661012052821661014052166101605250620003c29050565b604080516002808252606080830184529260208301908036833701905050905082815f81518110620001cc57620001cc620003ae565b60200260200101906001600160a01b031690816001600160a01b0316815250508181600181518110620002035762000203620003ae565b60200260200101906001600160a01b031690816001600160a01b03168152505092915050565b5f80546001600160a01b038381166001600160a01b0319831681178455604051919092169283917f8be0079c531659141344cd1fd0a4f28419497f9722a3daafe3b4186f6b6457e09190a35050565b5f6200028e836001600160a01b03841662000297565b90505b92915050565b5f818152600183016020526040812054620002de57508154600181810184555f84815260208082209093018490558454848252828601909352604090209190915562000291565b505f62000291565b80516001600160a01b0381168114620002fd575f80fd5b919050565b5f805f805f805f805f6101208a8c0312156200031c575f80fd5b620003278a620002e6565b98506200033760208b01620002e6565b97506200034760408b01620002e6565b965060608a015195506200035e60808b01620002e6565b94506200036e60a08b01620002e6565b93506200037e60c08b01620002e6565b92506200038e60e08b01620002e6565b91506200039f6101008b01620002e6565b90509295985092959850929598565b634e487b7160e01b5f52603260045260245ffd5b60805160a05160c05160e0516101005161012051610140516101605161216e620004e25f395f8181610269015281816118a2015261194201525f818161014c015261163001525f818161019801528181611557015281816117a8015261184801525f818161029001528181611004015281816110b201528181611170015261147e01525f81816101bf01528181610d1901528181610de501528181610e9301528181610f3301526113a901525f818161011701526116c301525f81816102ca015281816115250152818161160101526116f601525f818161021d01528181610419015281816105250152818161093e0152818161096701528181610af101528181610c67015281816111ff01528181611bab0152611bff015261216e5ff3fe608060405234801561000f575f80fd5b50600436106100f0575f3560e01c80638da5cb5b11610093578063e9597c6b11610063578063e9597c6b1461028b578063ec9d9e26146102b2578063f09959b9146102c5578063f2fde38b146102ec575f80fd5b80638da5cb5b146101fe578063a70354a11461021b578063ba3f8f6214610241578063d1575e5f14610264575f80fd5b80634a0c5c2e116100ce5780634a0c5c2e146101935780634b8f1bdf146101ba578063715018a6146101e157806387e61085146101eb575f80fd5b80630166d557146100f45780633e0dc34e146101125780633f1e337714610147575b5f80fd5b6100fc6102ff565b6040516101099190611d2a565b60405180910390f35b6101397f000000000000000000000000000000000000000000000000000000000000000081565b604051908152602001610109565b61016e7f000000000000000000000000000000000000000000000000000000000000000081565b60405173ffffffffffffffffffffffffffffffffffffffff9091168152602001610109565b61016e7f000000000000000000000000000000000000000000000000000000000000000081565b61016e7f000000000000000000000000000000000000000000000000000000000000000081565b6101e9610310565b005b6101e96101f9366004611db1565b610323565b5f5473ffffffffffffffffffffffffffffffffffffffff1661016e565b7f000000000000000000000000000000000000000000000000000000000000000061016e565b61025461024f366004611de8565b6103b0565b6040519015158152602001610109565b61016e7f000000000000000000000000000000000000000000000000000000000000000081565b61016e7f000000000000000000000000000000000000000000000000000000000000000081565b6101e96102c0366004611e03565b6103c2565b61016e7f000000000000000000000000000000000000000000000000000000000000000081565b6101e96102fa366004611de8565b61078d565b606061030b60016107f5565b905090565b610318610808565b6103215f6108b2565b565b61032d6001610926565b50610336610808565b801561034d57610347600183610bf5565b5061035a565b610358600183610c16565b505b8173ffffffffffffffffffffffffffffffffffffffff167f576c603e90c7c88544e6bfa56180af33c55d1dfcef81dec612923dec83880ef5826040516103a4911515815260200190565b60405180910390a25050565b5f6103bc600183610c37565b92915050565b6103ca610c65565b6040517fc368516c00000000000000000000000000000000000000000000000000000000815230600482015273ffffffffffffffffffffffffffffffffffffffff8087166024830152869185917f0000000000000000000000000000000000000000000000000000000000000000169063c368516c906044015f604051808303815f87803b15801561045a575f80fd5b505af115801561046c573d5f803e3d5ffd5b50505050610479856103b0565b156104915761048c888888888888610d17565b610728565b6040517fc134257400000000000000000000000000000000000000000000000000000000815273ffffffffffffffffffffffffffffffffffffffff87811660048301528681166024830152604482018690526064820185905283169063c1342574906084015f604051808303815f87803b15801561050d575f80fd5b505af115801561051f573d5f803e3d5ffd5b505050507f000000000000000000000000000000000000000000000000000000000000000073ffffffffffffffffffffffffffffffffffffffff16631f8b521588610568611974565b604080517fffffffffffffffffffffffffffffffffffffffffffffffffffffffffffffffff60248201523060448083019190915282518083039091018152606490910182526020810180517bffffffffffffffffffffffffffffffffffffffffffffffffffffffff167faebde56b0000000000000000000000000000000000000000000000000000000017905290517fffffffff0000000000000000000000000000000000000000000000000000000060e086901b1681526106309392915f91600401611e8f565b5f604051808303815f875af115801561064b573d5f803e3d5ffd5b505050506040513d5f823e601f3d9081017fffffffffffffffffffffffffffffffffffffffffffffffffffffffffffffffe01682016040526106909190810190611f3b565b506040517fcbfdd7e100000000000000000000000000000000000000000000000000000000815230600482015273ffffffffffffffffffffffffffffffffffffffff898116602483015282169063cbfdd7e1906044016020604051808303815f875af1158015610702573d5f803e3d5ffd5b505050506040513d601f19601f820116820180604052508101906107269190612001565b505b8173ffffffffffffffffffffffffffffffffffffffff1663869e50c76040518163ffffffff1660e01b81526004015f604051808303815f87803b15801561076d575f80fd5b505af115801561077f573d5f803e3d5ffd5b505050505050505050505050565b610795610808565b73ffffffffffffffffffffffffffffffffffffffff81166107e9576040517f1e4fbdf70000000000000000000000000000000000000000000000000000000081525f60048201526024015b60405180910390fd5b6107f2816108b2565b50565b60605f6108018361197d565b9392505050565b610810611974565b73ffffffffffffffffffffffffffffffffffffffff166108445f5473ffffffffffffffffffffffffffffffffffffffff1690565b73ffffffffffffffffffffffffffffffffffffffff161461032157610867611974565b6040517f118cdaa700000000000000000000000000000000000000000000000000000000815273ffffffffffffffffffffffffffffffffffffffff90911660048201526024016107e0565b5f805473ffffffffffffffffffffffffffffffffffffffff8381167fffffffffffffffffffffffff0000000000000000000000000000000000000000831681178455604051919092169283917f8be0079c531659141344cd1fd0a4f28419497f9722a3daafe3b4186f6b6457e09190a35050565b5f73ffffffffffffffffffffffffffffffffffffffff7f0000000000000000000000000000000000000000000000000000000000000000163303610bee575f7f000000000000000000000000000000000000000000000000000000000000000073ffffffffffffffffffffffffffffffffffffffff16633a1a3a1d6040518163ffffffff1660e01b8152600401602060405180830381865afa1580156109ce573d5f803e3d5ffd5b505050506040513d601f19601f820116820180604052508101906109f2919061201c565b905077ff00000000000000000000000000000000000000000000008116151580610a34575076ff00000000000000000000000000000000000000000000811615155b80610a56575075ff000000000000000000000000000000000000000000811615155b15610a8d576040517fea8e4eb500000000000000000000000000000000000000000000000000000000815260040160405180910390fd5b73ffffffffffffffffffffffffffffffffffffffff81168315610801576040517f442b172c00000000000000000000000000000000000000000000000000000000815273ffffffffffffffffffffffffffffffffffffffff82811660048301525f917f00000000000000000000000000000000000000000000000000000000000000009091169063442b172c90602401602060405180830381865afa158015610b38573d5f803e3d5ffd5b505050506040513d601f19601f82011682018060405250810190610b5c9190612033565b905073ffffffffffffffffffffffffffffffffffffffff811615801590610baf57508173ffffffffffffffffffffffffffffffffffffffff168173ffffffffffffffffffffffffffffffffffffffff1614155b15610be6576040517fea8e4eb500000000000000000000000000000000000000000000000000000000815260040160405180910390fd5b509392505050565b5033919050565b5f6108018373ffffffffffffffffffffffffffffffffffffffff84166119d6565b5f6108018373ffffffffffffffffffffffffffffffffffffffff8416611a22565b73ffffffffffffffffffffffffffffffffffffffff81165f9081526001830160205260408120541515610801565b7f000000000000000000000000000000000000000000000000000000000000000073ffffffffffffffffffffffffffffffffffffffff81163303610ca65750565b7f1f8b5215000000000000000000000000000000000000000000000000000000005f52306004523360245234604452608060645236608452365f60a4375f3660a401525f80601f19601f36011660a4015f34855af13d5f803e808015610d0e5760403d036040f35b3d5ffd5b505050565b7f000000000000000000000000000000000000000000000000000000000000000073ffffffffffffffffffffffffffffffffffffffff168373ffffffffffffffffffffffffffffffffffffffff1614610d9c576040517f8e9c8b4300000000000000000000000000000000000000000000000000000000815260040160405180910390fd5b6040517f70a082310000000000000000000000000000000000000000000000000000000081523060048201525f908190819073ffffffffffffffffffffffffffffffffffffffff7f000000000000000000000000000000000000000000000000000000000000000016906370a0823190602401602060405180830381865afa158015610e2a573d5f803e3d5ffd5b505050506040513d601f19601f82011682018060405250810190610e4e919061201c565b6040517fc134257400000000000000000000000000000000000000000000000000000000815273ffffffffffffffffffffffffffffffffffffffff89811660048301527f00000000000000000000000000000000000000000000000000000000000000008116602483015260448201889052606482018790529192509089169063c1342574906084015f604051808303815f87803b158015610eee575f80fd5b505af1158015610f00573d5f803e3d5ffd5b50506040517f70a082310000000000000000000000000000000000000000000000000000000081523060048201528392507f000000000000000000000000000000000000000000000000000000000000000073ffffffffffffffffffffffffffffffffffffffff1691506370a0823190602401602060405180830381865afa158015610f8e573d5f803e3d5ffd5b505050506040513d601f19601f82011682018060405250810190610fb2919061201c565b610fbc919061204e565b6040517f70a082310000000000000000000000000000000000000000000000000000000081523060048201529093505f9073ffffffffffffffffffffffffffffffffffffffff7f000000000000000000000000000000000000000000000000000000000000000016906370a0823190602401602060405180830381865afa158015611049573d5f803e3d5ffd5b505050506040513d601f19601f8201168201806040525081019061106d919061201c565b6040517fc134257400000000000000000000000000000000000000000000000000000000815273ffffffffffffffffffffffffffffffffffffffff8a811660048301527f0000000000000000000000000000000000000000000000000000000000000000811660248301527fffffffffffffffffffffffffffffffffffffffffffffffffffffffffffffffff60448301525f6064830152919250908a169063c1342574906084015f604051808303815f87803b15801561112b575f80fd5b505af115801561113d573d5f803e3d5ffd5b50506040517f70a082310000000000000000000000000000000000000000000000000000000081523060048201528392507f000000000000000000000000000000000000000000000000000000000000000073ffffffffffffffffffffffffffffffffffffffff1691506370a0823190602401602060405180830381865afa1580156111cb573d5f803e3d5ffd5b505050506040513d601f19601f820116820180604052508101906111ef919061201c565b6111f9919061204e565b925050507f000000000000000000000000000000000000000000000000000000000000000073ffffffffffffffffffffffffffffffffffffffff16631f8b521588611242611974565b604080517fffffffffffffffffffffffffffffffffffffffffffffffffffffffffffffffff60248201523060448083019190915282518083039091018152606490910182526020810180517bffffffffffffffffffffffffffffffffffffffffffffffffffffffff167faebde56b0000000000000000000000000000000000000000000000000000000017905290517fffffffff0000000000000000000000000000000000000000000000000000000060e086901b16815261130a9392915f91600401611e8f565b5f604051808303815f875af1158015611325573d5f803e3d5ffd5b505050506040513d5f823e601f3d9081017fffffffffffffffffffffffffffffffffffffffffffffffffffffffffffffffe016820160405261136a9190810190611f3b565b506040517fba08765200000000000000000000000000000000000000000000000000000000815260048101839052306024820181905260448201525f907f000000000000000000000000000000000000000000000000000000000000000073ffffffffffffffffffffffffffffffffffffffff169063ba087652906064016020604051808303815f875af1158015611404573d5f803e3d5ffd5b505050506040513d601f19601f82011682018060405250810190611428919061201c565b6040517fba08765200000000000000000000000000000000000000000000000000000000815260048101849052306024820181905260448201529091505f9073ffffffffffffffffffffffffffffffffffffffff7f0000000000000000000000000000000000000000000000000000000000000000169063ba087652906064016020604051808303815f875af11580156114c4573d5f803e3d5ffd5b505050506040513d601f19601f820116820180604052508101906114e8919061201c565b6040517f095ea7b300000000000000000000000000000000000000000000000000000000815273ffffffffffffffffffffffffffffffffffffffff7f000000000000000000000000000000000000000000000000000000000000000081166004830152602482018590529192507f00000000000000000000000000000000000000000000000000000000000000009091169063095ea7b3906044016020604051808303815f875af115801561159f573d5f803e3d5ffd5b505050506040513d601f19601f820116820180604052508101906115c39190612001565b506040517f095ea7b300000000000000000000000000000000000000000000000000000000815273ffffffffffffffffffffffffffffffffffffffff7f000000000000000000000000000000000000000000000000000000000000000081166004830152602482018390527f0000000000000000000000000000000000000000000000000000000000000000169063095ea7b3906044016020604051808303815f875af1158015611676573d5f803e3d5ffd5b505050506040513d601f19601f8201168201806040525081019061169a9190612001565b506040517f1766b8ac0000000000000000000000000000000000000000000000000000000081527f00000000000000000000000000000000000000000000000000000000000000006004820152602481018290523060448201527f000000000000000000000000000000000000000000000000000000000000000073ffffffffffffffffffffffffffffffffffffffff1690631766b8ac906064016060604051808303815f875af1158015611751573d5f803e3d5ffd5b505050506040513d601f19601f820116820180604052508101906117759190612086565b50506040517f70a082310000000000000000000000000000000000000000000000000000000081523060048201525f91507f000000000000000000000000000000000000000000000000000000000000000073ffffffffffffffffffffffffffffffffffffffff16906370a0823190602401602060405180830381865afa158015611802573d5f803e3d5ffd5b505050506040513d601f19601f82011682018060405250810190611826919061201c565b9050801561186f5761186f73ffffffffffffffffffffffffffffffffffffffff7f0000000000000000000000000000000000000000000000000000000000000000168c83611b05565b50506040517f70a082310000000000000000000000000000000000000000000000000000000081523060048201525f91507f000000000000000000000000000000000000000000000000000000000000000073ffffffffffffffffffffffffffffffffffffffff16906370a0823190602401602060405180830381865afa1580156118fc573d5f803e3d5ffd5b505050506040513d601f19601f82011682018060405250810190611920919061201c565b905080156119695761196973ffffffffffffffffffffffffffffffffffffffff7f0000000000000000000000000000000000000000000000000000000000000000168a83611b05565b505050505050505050565b5f61030b611b92565b6060815f018054806020026020016040519081016040528092919081815260200182805480156119ca57602002820191905f5260205f20905b8154815260200190600101908083116119b6575b50505050509050919050565b5f818152600183016020526040812054611a1b57508154600181810184555f8481526020808220909301849055845484825282860190935260409020919091556103bc565b505f6103bc565b5f8181526001830160205260408120548015611afc575f611a4460018361204e565b85549091505f90611a579060019061204e565b9050808214611ab6575f865f018281548110611a7557611a756120b1565b905f5260205f200154905080875f018481548110611a9557611a956120b1565b5f918252602080832090910192909255918252600188019052604090208390555b8554869080611ac757611ac76120de565b600190038181905f5260205f20015f90559055856001015f8681526020019081526020015f205f9055600193505050506103bc565b5f9150506103bc565b6040805173ffffffffffffffffffffffffffffffffffffffff8416602482015260448082018490528251808303909101815260649091019091526020810180517bffffffffffffffffffffffffffffffffffffffffffffffffffffffff167fa9059cbb00000000000000000000000000000000000000000000000000000000179052610d12908490611c85565b5f3373ffffffffffffffffffffffffffffffffffffffff7f0000000000000000000000000000000000000000000000000000000000000000168103611c80576040517f18503a1e0000000000000000000000000000000000000000000000000000000081525f60048201527f000000000000000000000000000000000000000000000000000000000000000073ffffffffffffffffffffffffffffffffffffffff16906318503a1e906024016040805180830381865afa158015611c58573d5f803e3d5ffd5b505050506040513d601f19601f82011682018060405250810190611c7c919061210b565b5090505b919050565b5f8060205f8451602086015f885af180611ca4576040513d5f823e3d81fd5b50505f513d91508115611cbb578060011415611cd5565b73ffffffffffffffffffffffffffffffffffffffff84163b155b15611d24576040517f5274afe700000000000000000000000000000000000000000000000000000000815273ffffffffffffffffffffffffffffffffffffffff851660048201526024016107e0565b50505050565b602080825282518282018190525f9190848201906040850190845b81811015611d7757835173ffffffffffffffffffffffffffffffffffffffff1683529284019291840191600101611d45565b50909695505050505050565b73ffffffffffffffffffffffffffffffffffffffff811681146107f2575f80fd5b80151581146107f2575f80fd5b5f8060408385031215611dc2575f80fd5b8235611dcd81611d83565b91506020830135611ddd81611da4565b809150509250929050565b5f60208284031215611df8575f80fd5b813561080181611d83565b5f805f805f8060c08789031215611e18575f80fd5b8635611e2381611d83565b95506020870135611e3381611d83565b94506040870135611e4381611d83565b93506060870135611e5381611d83565b9598949750929560808101359460a0909101359350915050565b5f5b83811015611e87578181015183820152602001611e6f565b50505f910152565b5f73ffffffffffffffffffffffffffffffffffffffff8087168352808616602084015250836040830152608060608301528251806080840152611ed98160a0850160208701611e6d565b601f017fffffffffffffffffffffffffffffffffffffffffffffffffffffffffffffffe0169190910160a00195945050505050565b7f4e487b71000000000000000000000000000000000000000000000000000000005f52604160045260245ffd5b5f60208284031215611f4b575f80fd5b815167ffffffffffffffff80821115611f62575f80fd5b818401915084601f830112611f75575f80fd5b815181811115611f8757611f87611f0e565b604051601f82017fffffffffffffffffffffffffffffffffffffffffffffffffffffffffffffffe0908116603f01168101908382118183101715611fcd57611fcd611f0e565b81604052828152876020848701011115611fe5575f80fd5b611ff6836020830160208801611e6d565b979650505050505050565b5f60208284031215612011575f80fd5b815161080181611da4565b5f6020828403121561202c575f80fd5b5051919050565b5f60208284031215612043575f80fd5b815161080181611d83565b818103818111156103bc577f4e487b71000000000000000000000000000000000000000000000000000000005f52601160045260245ffd5b5f805f60608486031215612098575f80fd5b8351925060208401519150604084015190509250925092565b7f4e487b71000000000000000000000000000000000000000000000000000000005f52603260045260245ffd5b7f4e487b71000000000000000000000000000000000000000000000000000000005f52603160045260245ffd5b5f806040838503121561211c575f80fd5b825161212781611d83565b6020840151909250611ddd81611da456fea26469706673582212204c291c4bec50eebd9d21949fe0991673e6a876c6a01c432e6fd5fd8604fed69d64736f6c63430008180033","linkReferences":{}},"methodIdentifiers":{"EVC()":"a70354a1","corkPoolManager()":"f09959b9","cstToken()":"3f1e3377","cstVault()":"e9597c6b","getCustomLiquidationVaults()":"0166d557","isCustomLiquidationVault(address)":"ba3f8f62","liquidate(address,address,address,address,uint256,uint256)":"ec9d9e26","owner()":"8da5cb5b","poolId()":"3e0dc34e","refVault()":"4b8f1bdf","renounceOwnership()":"715018a6","sUsdeToken()":"d1575e5f","setCustomLiquidationVault(address,bool)":"87e61085","transferOwnership(address)":"f2fde38b","vbUSDC()":"4a0c5c2e"},"id":77}