{"abi":[{"type":"constructor","inputs":[{"name":"_corkPoolManager","type":"address","internalType":"address"},{"name":"_poolId","type":"bytes32","internalType":"bytes32"},{"name":"_base","type":"address","internalType":"address"},{"name":"_quote","type":"address","internalType":"address"},{"name":"_sUsdeToken","type":"address","internalType":"address"},{"name":"_sUsdePriceOracle","type":"address","internalType":"address"},{"name":"_hPool","type":"uint256","internalType":"uint256"},{"name":"_governor","type":"address","internalType":"address"}],"stateMutability":"nonpayable"},{"type":"function","name":"CORK_POOL_MANAGER","inputs":[],"outputs":[{"name":"","type":"address","internalType":"address"}],"stateMutability":"view"},{"type":"function","name":"POOL_ID","inputs":[],"outputs":[{"name":"","type":"bytes32","internalType":"bytes32"}],"stateMutability":"view"},{"type":"function","name":"base","inputs":[],"outputs":[{"name":"","type":"address","internalType":"address"}],"stateMutability":"view"},{"type":"function","name":"getQuote","inputs":[{"name":"inAmount","type":"uint256","internalType":"uint256"},{"name":"base","type":"address","internalType":"address"},{"name":"quote","type":"address","internalType":"address"}],"outputs":[{"name":"","type":"uint256","internalType":"uint256"}],"stateMutability":"view"},{"type":"function","name":"getQuotes","inputs":[{"name":"inAmount","type":"uint256","internalType":"uint256"},{"name":"base","type":"address","internalType":"address"},{"name":"quote","type":"address","internalType":"address"}],"outputs":[{"name":"","type":"uint256","internalType":"uint256"},{"name":"","type":"uint256","internalType":"uint256"}],"stateMutability":"view"},{"type":"function","name":"governor","inputs":[],"outputs":[{"name":"","type":"address","internalType":"address"}],"stateMutability":"view"},{"type":"function","name":"hPool","inputs":[],"outputs":[{"name":"","type":"uint256","internalType":"uint256"}],"stateMutability":"view"},{"type":"function","name":"name","inputs":[],"outputs":[{"name":"","type":"string","internalType":"string"}],"stateMutability":"view"},{"type":"function","name":"quote","inputs":[],"outputs":[{"name":"","type":"address","internalType":"address"}],"stateMutability":"view"},{"type":"function","name":"sUsdePriceOracle","inputs":[],"outputs":[{"name":"","type":"address","internalType":"address"}],"stateMutability":"view"},{"type":"function","name":"sUsdeToken","inputs":[],"outputs":[{"name":"","type":"address","internalType":"address"}],"stateMutability":"view"},{"type":"function","name":"setHPool","inputs":[{"name":"_hPool","type":"uint256","internalType":"uint256"}],"outputs":[],"stateMutability":"nonpayable"},{"type":"function","name":"transferGovernance","inputs":[{"name":"newGovernor","type":"address","internalType":"address"}],"outputs":[],"stateMutability":"nonpayable"},{"type":"event","name":"GovernorTransferred","inputs":[{"name":"oldGovernor","type":"address","indexed":true,"internalType":"address"},{"name":"newGovernor","type":"address","indexed":true,"internalType":"address"}],"anonymous":false},{"type":"event","name":"HPoolUpdated","inputs":[{"name":"oldHPool","type":"uint256","indexed":false,"internalType":"uint256"},{"name":"newHPool","type":"uint256","indexed":false,"internalType":"uint256"}],"anonymous":false},{"type":"error","name":"InvalidHPool","inputs":[]},{"type":"error","name":"NotGovernor","inputs":[]},{"type":"error","name":"PriceOracle_NotSupported","inputs":[{"name":"base","type":"address","internalType":"address"},{"name":"quote","type":"address","internalType":"address"}]}],"bytecode":{"object":"0x61014060405234801562000011575f80fd5b5060405162000fd438038062000fd4833981016040819052620000349162000311565b6001600160a01b0388166200009a5760405162461bcd60e51b815260206004820152602160248201527f436f726b4f7261636c65496d706c3a207a65726f20706f6f6c206d616e6167656044820152603960f91b60648201526084015b60405180910390fd5b6001600160a01b038616620000f25760405162461bcd60e51b815260206004820152601960248201527f436f726b4f7261636c65496d706c3a207a65726f206261736500000000000000604482015260640162000091565b6001600160a01b0384166200014a5760405162461bcd60e51b815260206004820181905260248201527f436f726b4f7261636c65496d706c3a207a65726f20735553446520746f6b656e604482015260640162000091565b6001600160a01b038316620001a25760405162461bcd60e51b815260206004820152601b60248201527f436f726b4f7261636c65496d706c3a207a65726f206f7261636c650000000000604482015260640162000091565b6001600160a01b038516620001fa5760405162461bcd60e51b815260206004820152601a60248201527f436f726b4f7261636c65496d706c3a207a65726f2071756f7465000000000000604482015260640162000091565b670de0b6b3a7640000821115620002545760405162461bcd60e51b815260206004820152601b60248201527f436f726b4f7261636c65496d706c3a2068506f6f6c203e20312e300000000000604482015260640162000091565b6001600160a01b038116620002ac5760405162461bcd60e51b815260206004820152601d60248201527f436f726b4f7261636c65496d706c3a207a65726f20676f7665726e6f72000000604482015260640162000091565b6001600160a01b0397881660c05260e09690965293861660805291851660a0528416610100528316610120525f55600180546001600160a01b03191691909216179055620003a2565b80516001600160a01b03811681146200030c575f80fd5b919050565b5f805f805f805f80610100898b0312156200032a575f80fd5b6200033589620002f5565b9750602089015196506200034c60408a01620002f5565b95506200035c60608a01620002f5565b94506200036c60808a01620002f5565b93506200037c60a08a01620002f5565b925060c089015191506200039360e08a01620002f5565b90509295985092959890939650565b60805160a05160c05160e0516101005161012051610bab620004295f395f81816101ec015261088f01525f8181610263015261083a01525f81816102b201528181610669015261074901525f81816101c501528181610691015261077101525f81816102130152818161058f015261086201525f818161019e01526105390152610bab5ff3fe608060405234801561000f575f80fd5b50600436106100da575f3560e01c8063999b93af11610088578063d1575e5f11610063578063d1575e5f1461025e578063d38bfff414610285578063dd2f51701461029a578063e0d7d0e9146102ad575f80fd5b8063999b93af1461020e5780639e36006f14610235578063ae68676c1461024b575f80fd5b80635001f3b5116100b85780635001f3b5146101995780637d0f85d3146101c0578063953ab452146101e7575f80fd5b80630579e61f146100de57806306fdde031461010b5780630c340a2414610154575b5f80fd5b6100f16100ec3660046109f6565b6102d4565b604080519283526020830191909152015b60405180910390f35b6101476040518060400160405280600e81526020017f436f726b4f7261636c65496d706c00000000000000000000000000000000000081525081565b6040516101029190610a2f565b6001546101749073ffffffffffffffffffffffffffffffffffffffff1681565b60405173ffffffffffffffffffffffffffffffffffffffff9091168152602001610102565b6101747f000000000000000000000000000000000000000000000000000000000000000081565b6101747f000000000000000000000000000000000000000000000000000000000000000081565b6101747f000000000000000000000000000000000000000000000000000000000000000081565b6101747f000000000000000000000000000000000000000000000000000000000000000081565b61023d5f5481565b604051908152602001610102565b61023d6102593660046109f6565b6102ee565b6101747f000000000000000000000000000000000000000000000000000000000000000081565b610298610293366004610a99565b610304565b005b6102986102a8366004610ab2565b610464565b61023d7f000000000000000000000000000000000000000000000000000000000000000081565b5f805f6102e2868686610536565b96879650945050505050565b5f6102fa848484610536565b90505b9392505050565b60015473ffffffffffffffffffffffffffffffffffffffff163314610355576040517fee3675d400000000000000000000000000000000000000000000000000000000815260040160405180910390fd5b73ffffffffffffffffffffffffffffffffffffffff81166103d7576040517f08c379a000000000000000000000000000000000000000000000000000000000815260206004820152601d60248201527f436f726b4f7261636c65496d706c3a207a65726f20676f7665726e6f7200000060448201526064015b60405180910390fd5b60015460405173ffffffffffffffffffffffffffffffffffffffff8084169216907f6fadb1c244276388aee22be93b919985a18748c021e5d48553957a48101a2560905f90a3600180547fffffffffffffffffffffffff00000000000000000000000000000000000000001673ffffffffffffffffffffffffffffffffffffffff92909216919091179055565b60015473ffffffffffffffffffffffffffffffffffffffff1633146104b5576040517fee3675d400000000000000000000000000000000000000000000000000000000815260040160405180910390fd5b670de0b6b3a76400008111156104f7576040517f106a43fb00000000000000000000000000000000000000000000000000000000815260040160405180910390fd5b5f5460408051918252602082018390527f1ae2dedc102732637bdd7f68b41d2760da19aa35753fbb350dcdaf6d0fb4914e910160405180910390a15f55565b5f7f000000000000000000000000000000000000000000000000000000000000000073ffffffffffffffffffffffffffffffffffffffff168373ffffffffffffffffffffffffffffffffffffffff161480156105dd57507f000000000000000000000000000000000000000000000000000000000000000073ffffffffffffffffffffffffffffffffffffffff168273ffffffffffffffffffffffffffffffffffffffff16145b610633576040517f4ca22af000000000000000000000000000000000000000000000000000000000815273ffffffffffffffffffffffffffffffffffffffff8085166004830152831660248201526044016103ce565b835f0361064157505f6102fd565b6040517f589e04c00000000000000000000000000000000000000000000000000000000081527f000000000000000000000000000000000000000000000000000000000000000060048201525f907f000000000000000000000000000000000000000000000000000000000000000073ffffffffffffffffffffffffffffffffffffffff169063589e04c090602401602060405180830381865afa1580156106eb573d5f803e3d5ffd5b505050506040513d601f19601f8201168201806040525081019061070f9190610ac9565b9050805f03610721575f9150506102fd565b6040517fb85ce13e0000000000000000000000000000000000000000000000000000000081527f000000000000000000000000000000000000000000000000000000000000000060048201525f907f000000000000000000000000000000000000000000000000000000000000000073ffffffffffffffffffffffffffffffffffffffff169063b85ce13e90602401602060405180830381865afa1580156107cb573d5f803e3d5ffd5b505050506040513d601f19601f820116820180604052508101906107ef9190610ac9565b6040517fae68676c000000000000000000000000000000000000000000000000000000008152670de0b6b3a7640000600482015273ffffffffffffffffffffffffffffffffffffffff7f0000000000000000000000000000000000000000000000000000000000000000811660248301527f0000000000000000000000000000000000000000000000000000000000000000811660448301529192505f917f0000000000000000000000000000000000000000000000000000000000000000169063ae68676c90606401602060405180830381865afa1580156108d4573d5f803e3d5ffd5b505050506040513d601f19601f820116820180604052508101906108f89190610ac9565b90505f670de0b6b3a764000061090e8386610b0d565b6109189190610b2a565b90505f670de0b6b3a764000061093585662386f26fc10000610b0d565b61093f9190610b2a565b9050670de0b6b3a76400006109548282610b62565b61095e9084610b0d565b6109689190610b2a565b9150670de0b6b3a76400005f54836109809190610b0d565b61098a9190610b2a565b9150670de0b6b3a76400005f8382106109a357836109a5565b815b9050620f42406109b5828d610b0d565b6109bf9190610b2a565b9b9a5050505050505050505050565b803573ffffffffffffffffffffffffffffffffffffffff811681146109f1575f80fd5b919050565b5f805f60608486031215610a08575f80fd5b83359250610a18602085016109ce565b9150610a26604085016109ce565b90509250925092565b5f602080835283518060208501525f5b81811015610a5b57858101830151858201604001528201610a3f565b505f6040828601015260407fffffffffffffffffffffffffffffffffffffffffffffffffffffffffffffffe0601f8301168501019250505092915050565b5f60208284031215610aa9575f80fd5b6102fd826109ce565b5f60208284031215610ac2575f80fd5b5035919050565b5f60208284031215610ad9575f80fd5b5051919050565b7f4e487b71000000000000000000000000000000000000000000000000000000005f52601160045260245ffd5b8082028115828204841417610b2457610b24610ae0565b92915050565b5f82610b5d577f4e487b71000000000000000000000000000000000000000000000000000000005f52601260045260245ffd5b500490565b81810381811115610b2457610b24610ae056fea2646970667358221220ec92364f8b0a3a1a4f5ed1fa204fe3de54dcdc375c85312e24133428c3ac86c164736f6c63430008180033","linkReferences":{}},"methodIdentifiers":{"CORK_POOL_MANAGER()":"7d0f85d3","POOL_ID()":"e0d7d0e9","base()":"5001f3b5","getQuote(uint256,address,address)":"ae68676c","getQuotes(uint256,address,address)":"0579e61f","governor()":"0c340a24","hPool()":"9e36006f","name()":"06fdde03","quote()":"999b93af","sUsdePriceOracle()":"953ab452","sUsdeToken()":"d1575e5f","setHPool(uint256)":"dd2f5170","transferGovernance(address)":"d38bfff4"},"id":79}