{"abi":[{"type":"constructor","inputs":[{"name":"evc","type":"address","internalType":"address"},{"name":"permit2","type":"address","internalType":"address"},{"name":"admin","type":"address","internalType":"address"},{"name":"_borrowVault","type":"address","internalType":"address"},{"name":"asset","type":"address","internalType":"address"},{"name":"_name","type":"string","internalType":"string"},{"name":"_symbol","type":"string","internalType":"string"},{"name":"_isRefVault","type":"bool","internalType":"bool"}],"stateMutability":"nonpayable"},{"type":"function","name":"EVC","inputs":[],"outputs":[{"name":"","type":"address","internalType":"address"}],"stateMutability":"view"},{"type":"function","name":"allowance","inputs":[{"name":"holder","type":"address","internalType":"address"},{"name":"spender","type":"address","internalType":"address"}],"outputs":[{"name":"","type":"uint256","internalType":"uint256"}],"stateMutability":"view"},{"type":"function","name":"approve","inputs":[{"name":"spender","type":"address","internalType":"address"},{"name":"amount","type":"uint256","internalType":"uint256"}],"outputs":[{"name":"","type":"bool","internalType":"bool"}],"stateMutability":"nonpayable"},{"type":"function","name":"asset","inputs":[],"outputs":[{"name":"","type":"address","internalType":"address"}],"stateMutability":"view"},{"type":"function","name":"balanceOf","inputs":[{"name":"account","type":"address","internalType":"address"}],"outputs":[{"name":"","type":"uint256","internalType":"uint256"}],"stateMutability":"view"},{"type":"function","name":"borrowVault","inputs":[],"outputs":[{"name":"","type":"address","internalType":"address"}],"stateMutability":"view"},{"type":"function","name":"checkVaultStatus","inputs":[],"outputs":[{"name":"magicValue","type":"bytes4","internalType":"bytes4"}],"stateMutability":"nonpayable"},{"type":"function","name":"convertToAssets","inputs":[{"name":"shares","type":"uint256","internalType":"uint256"}],"outputs":[{"name":"","type":"uint256","internalType":"uint256"}],"stateMutability":"view"},{"type":"function","name":"convertToShares","inputs":[{"name":"assets","type":"uint256","internalType":"uint256"}],"outputs":[{"name":"","type":"uint256","internalType":"uint256"}],"stateMutability":"view"},{"type":"function","name":"decimals","inputs":[],"outputs":[{"name":"","type":"uint8","internalType":"uint8"}],"stateMutability":"view"},{"type":"function","name":"deposit","inputs":[{"name":"assets","type":"uint256","internalType":"uint256"},{"name":"receiver","type":"address","internalType":"address"}],"outputs":[{"name":"shares","type":"uint256","internalType":"uint256"}],"stateMutability":"nonpayable"},{"type":"function","name":"governorAdmin","inputs":[],"outputs":[{"name":"","type":"address","internalType":"address"}],"stateMutability":"view"},{"type":"function","name":"isRefVault","inputs":[],"outputs":[{"name":"","type":"bool","internalType":"bool"}],"stateMutability":"view"},{"type":"function","name":"maxDeposit","inputs":[{"name":"account","type":"address","internalType":"address"}],"outputs":[{"name":"","type":"uint256","internalType":"uint256"}],"stateMutability":"view"},{"type":"function","name":"maxMint","inputs":[{"name":"account","type":"address","internalType":"address"}],"outputs":[{"name":"","type":"uint256","internalType":"uint256"}],"stateMutability":"view"},{"type":"function","name":"maxRedeem","inputs":[{"name":"owner","type":"address","internalType":"address"}],"outputs":[{"name":"","type":"uint256","internalType":"uint256"}],"stateMutability":"view"},{"type":"function","name":"maxWithdraw","inputs":[{"name":"owner","type":"address","internalType":"address"}],"outputs":[{"name":"","type":"uint256","internalType":"uint256"}],"stateMutability":"view"},{"type":"function","name":"mint","inputs":[{"name":"shares","type":"uint256","internalType":"uint256"},{"name":"receiver","type":"address","internalType":"address"}],"outputs":[{"name":"assets","type":"uint256","internalType":"uint256"}],"stateMutability":"nonpayable"},{"type":"function","name":"name","inputs":[],"outputs":[{"name":"","type":"string","internalType":"string"}],"stateMutability":"view"},{"type":"function","name":"pairedVault","inputs":[],"outputs":[{"name":"","type":"address","internalType":"address"}],"stateMutability":"view"},{"type":"function","name":"permit2Address","inputs":[],"outputs":[{"name":"","type":"address","internalType":"address"}],"stateMutability":"view"},{"type":"function","name":"previewDeposit","inputs":[{"name":"assets","type":"uint256","internalType":"uint256"}],"outputs":[{"name":"","type":"uint256","internalType":"uint256"}],"stateMutability":"view"},{"type":"function","name":"previewMint","inputs":[{"name":"shares","type":"uint256","internalType":"uint256"}],"outputs":[{"name":"","type":"uint256","internalType":"uint256"}],"stateMutability":"view"},{"type":"function","name":"previewRedeem","inputs":[{"name":"shares","type":"uint256","internalType":"uint256"}],"outputs":[{"name":"","type":"uint256","internalType":"uint256"}],"stateMutability":"view"},{"type":"function","name":"previewWithdraw","inputs":[{"name":"assets","type":"uint256","internalType":"uint256"}],"outputs":[{"name":"","type":"uint256","internalType":"uint256"}],"stateMutability":"view"},{"type":"function","name":"redeem","inputs":[{"name":"shares","type":"uint256","internalType":"uint256"},{"name":"receiver","type":"address","internalType":"address"},{"name":"owner","type":"address","internalType":"address"}],"outputs":[{"name":"assets","type":"uint256","internalType":"uint256"}],"stateMutability":"nonpayable"},{"type":"function","name":"setGovernorAdmin","inputs":[{"name":"newGovernorAdmin","type":"address","internalType":"address"}],"outputs":[],"stateMutability":"nonpayable"},{"type":"function","name":"setPairedVault","inputs":[{"name":"_pairedVault","type":"address","internalType":"address"}],"outputs":[],"stateMutability":"nonpayable"},{"type":"function","name":"setSupplyCap","inputs":[{"name":"cap","type":"uint16","internalType":"uint16"}],"outputs":[],"stateMutability":"nonpayable"},{"type":"function","name":"supplyCap","inputs":[],"outputs":[{"name":"","type":"uint16","internalType":"uint16"}],"stateMutability":"view"},{"type":"function","name":"supplyCapResolved","inputs":[],"outputs":[{"name":"","type":"uint256","internalType":"uint256"}],"stateMutability":"view"},{"type":"function","name":"symbol","inputs":[],"outputs":[{"name":"","type":"string","internalType":"string"}],"stateMutability":"view"},{"type":"function","name":"totalAssets","inputs":[],"outputs":[{"name":"","type":"uint256","internalType":"uint256"}],"stateMutability":"view"},{"type":"function","name":"totalSupply","inputs":[],"outputs":[{"name":"","type":"uint256","internalType":"uint256"}],"stateMutability":"view"},{"type":"function","name":"transfer","inputs":[{"name":"to","type":"address","internalType":"address"},{"name":"amount","type":"uint256","internalType":"uint256"}],"outputs":[{"name":"","type":"bool","internalType":"bool"}],"stateMutability":"nonpayable"},{"type":"function","name":"transferFrom","inputs":[{"name":"from","type":"address","internalType":"address"},{"name":"to","type":"address","internalType":"address"},{"name":"amount","type":"uint256","internalType":"uint256"}],"outputs":[{"name":"","type":"bool","internalType":"bool"}],"stateMutability":"nonpayable"},{"type":"function","name":"withdraw","inputs":[{"name":"assets","type":"uint256","internalType":"uint256"},{"name":"receiver","type":"address","internalType":"address"},{"name":"owner","type":"address","internalType":"address"}],"outputs":[{"name":"shares","type":"uint256","internalType":"uint256"}],"stateMutability":"nonpayable"},{"type":"event","name":"Approval","inputs":[{"name":"owner","type":"address","indexed":true,"internalType":"address"},{"name":"spender","type":"address","indexed":true,"internalType":"address"},{"name":"value","type":"uint256","indexed":false,"internalType":"uint256"}],"anonymous":false},{"type":"event","name":"Deposit","inputs":[{"name":"sender","type":"address","indexed":true,"internalType":"address"},{"name":"owner","type":"address","indexed":true,"internalType":"address"},{"name":"assets","type":"uint256","indexed":false,"internalType":"uint256"},{"name":"shares","type":"uint256","indexed":false,"internalType":"uint256"}],"anonymous":false},{"type":"event","name":"GovSetGovernorAdmin","inputs":[{"name":"newGovernorAdmin","type":"address","indexed":true,"internalType":"address"}],"anonymous":false},{"type":"event","name":"GovSetSupplyCap","inputs":[{"name":"newSupplyCap","type":"uint16","indexed":false,"internalType":"uint16"}],"anonymous":false},{"type":"event","name":"PairedVaultSet","inputs":[{"name":"pairedVault","type":"address","indexed":true,"internalType":"address"}],"anonymous":false},{"type":"event","name":"Transfer","inputs":[{"name":"from","type":"address","indexed":true,"internalType":"address"},{"name":"to","type":"address","indexed":true,"internalType":"address"},{"name":"value","type":"uint256","indexed":false,"internalType":"uint256"}],"anonymous":false},{"type":"event","name":"Withdraw","inputs":[{"name":"sender","type":"address","indexed":true,"internalType":"address"},{"name":"receiver","type":"address","indexed":true,"internalType":"address"},{"name":"owner","type":"address","indexed":true,"internalType":"address"},{"name":"assets","type":"uint256","indexed":false,"internalType":"uint256"},{"name":"shares","type":"uint256","indexed":false,"internalType":"uint256"}],"anonymous":false},{"type":"error","name":"AlreadyInitialized","inputs":[]},{"type":"error","name":"BadSupplyCap","inputs":[]},{"type":"error","name":"ControllerDisabled","inputs":[]},{"type":"error","name":"DepositWouldBreakPairing","inputs":[]},{"type":"error","name":"ERC20InsufficientAllowance","inputs":[{"name":"spender","type":"address","internalType":"address"},{"name":"allowance","type":"uint256","internalType":"uint256"},{"name":"needed","type":"uint256","internalType":"uint256"}]},{"type":"error","name":"ERC20InsufficientBalance","inputs":[{"name":"sender","type":"address","internalType":"address"},{"name":"balance","type":"uint256","internalType":"uint256"},{"name":"needed","type":"uint256","internalType":"uint256"}]},{"type":"error","name":"ERC20InvalidApprover","inputs":[{"name":"approver","type":"address","internalType":"address"}]},{"type":"error","name":"ERC20InvalidReceiver","inputs":[{"name":"receiver","type":"address","internalType":"address"}]},{"type":"error","name":"ERC20InvalidSender","inputs":[{"name":"sender","type":"address","internalType":"address"}]},{"type":"error","name":"ERC20InvalidSpender","inputs":[{"name":"spender","type":"address","internalType":"address"}]},{"type":"error","name":"ERC4626ExceededMaxDeposit","inputs":[{"name":"receiver","type":"address","internalType":"address"},{"name":"assets","type":"uint256","internalType":"uint256"},{"name":"max","type":"uint256","internalType":"uint256"}]},{"type":"error","name":"ERC4626ExceededMaxMint","inputs":[{"name":"receiver","type":"address","internalType":"address"},{"name":"shares","type":"uint256","internalType":"uint256"},{"name":"max","type":"uint256","internalType":"uint256"}]},{"type":"error","name":"ERC4626ExceededMaxRedeem","inputs":[{"name":"owner","type":"address","internalType":"address"},{"name":"shares","type":"uint256","internalType":"uint256"},{"name":"max","type":"uint256","internalType":"uint256"}]},{"type":"error","name":"ERC4626ExceededMaxWithdraw","inputs":[{"name":"owner","type":"address","internalType":"address"},{"name":"assets","type":"uint256","internalType":"uint256"},{"name":"max","type":"uint256","internalType":"uint256"}]},{"type":"error","name":"EVC_InvalidAddress","inputs":[]},{"type":"error","name":"HasDebt","inputs":[]},{"type":"error","name":"InvalidAddress","inputs":[]},{"type":"error","name":"NoPairedCoverage","inputs":[]},{"type":"error","name":"NotAuthorized","inputs":[]},{"type":"error","name":"Reentrancy","inputs":[]},{"type":"error","name":"SafeERC20FailedOperation","inputs":[{"name":"token","type":"address","internalType":"address"}]},{"type":"error","name":"SupplyCapExceeded","inputs":[]},{"type":"error","name":"WithdrawalBreaksPairing","inputs":[]},{"type":"error","name":"ZeroAssets","inputs":[]},{"type":"error","name":"ZeroShares","inputs":[]}],"bytecode":{"object":"0x61014060405234801562000011575f80fd5b506040516200491338038062004913833981016040819052620000349162000390565b858888868686828282876001600160a01b0381166200006657604051638133abd160e01b815260040160405180910390fd5b6001600160a01b03166080526003620000808382620004f5565b5060046200008f8282620004f5565b5050505f80620000a5836200016b60201b60201c565b9150915081620000b7576012620000b9565b805b60ff1660c05250506001600160a01b0390811660a0529390931660e05250600f9250620000ea91508290506200024a565b620000f55f6200024a565b6200010160016200024a565b600680546001600160a01b0319166001600160a01b0384169081179091556040517f1c145a4cd16d4148579b0f2296884ac4aa47536e4ef10a32e1cdc0dc3dd20ea4905f90a250506001600160a01b039094166101005250505015156101205250620005f6915050565b60408051600481526024810182526020810180516001600160e01b031663313ce56760e01b17905290515f918291829182916001600160a01b03871691620001b391620005c1565b5f60405180830381855afa9150503d805f8114620001ed576040519150601f19603f3d011682016040523d82523d5f602084013e620001f2565b606091505b50915091508180156200020757506020815110155b156200023e575f81806020019051810190620002249190620005de565b905060ff81116200023c576001969095509350505050565b505b505f9485945092505050565b600654600160a01b9004600160ff83161b1661ffff16156200027e5760405162dc149f60e41b815260040160405180910390fd5b6006805461ffff60a01b198116600160a01b9182900461ffff908116600160ff87161b9091161790910217905550565b80516001600160a01b0381168114620002c5575f80fd5b919050565b634e487b7160e01b5f52604160045260245ffd5b5f5b83811015620002fa578181015183820152602001620002e0565b50505f910152565b5f82601f83011262000312575f80fd5b81516001600160401b03808211156200032f576200032f620002ca565b604051601f8301601f19908116603f011681019082821181831017156200035a576200035a620002ca565b8160405283815286602085880101111562000373575f80fd5b62000386846020830160208901620002de565b9695505050505050565b5f805f805f805f80610100898b031215620003a9575f80fd5b620003b489620002ae565b9750620003c460208a01620002ae565b9650620003d460408a01620002ae565b9550620003e460608a01620002ae565b9450620003f460808a01620002ae565b60a08a01519094506001600160401b038082111562000411575f80fd5b6200041f8c838d0162000302565b945060c08b015191508082111562000435575f80fd5b50620004448b828c0162000302565b92505060e089015180151581146200045a575f80fd5b809150509295985092959890939650565b600181811c908216806200048057607f821691505b6020821081036200049f57634e487b7160e01b5f52602260045260245ffd5b50919050565b601f821115620004f057805f5260205f20601f840160051c81016020851015620004cc5750805b601f840160051c820191505b81811015620004ed575f8155600101620004d8565b50505b505050565b81516001600160401b03811115620005115762000511620002ca565b62000529816200052284546200046b565b84620004a5565b602080601f8311600181146200055f575f8415620005475750858301515b5f19600386901b1c1916600185901b178555620005b9565b5f85815260208120601f198616915b828110156200058f578886015182559484019460019091019084016200056e565b5085821015620005ad57878501515f19600388901b60f8161c191681555b505060018460011b0185555b505050505050565b5f8251620005d4818460208701620002de565b9190910192915050565b5f60208284031215620005ef575f80fd5b5051919050565b60805160a05160c05160e0516101005161012051614234620006df5f395f818161031b01528181612a8001526131e701525f818161040201528181612b0e015261325101525f818161055e015261315301525f610c9c01525f8181610359015281816124ec0152818161312f0152613b5201525f81816104e9015281816111950152818161176101528181611e0a01528181611e3301528181611fbd015281816120cc015281816121d101528181612297015281816122c10152818161264d015281816127700152818161289b01528181612977015281816129cb015261395001526142345ff3fe608060405234801561000f575f80fd5b5060043610610269575f3560e01c806370a0823111610157578063b460af94116100d2578063ce96cb7711610088578063dd62ed3e1161006e578063dd62ed3e146105cc578063ef8b30f7146105df578063ff2833da146105f2575f80fd5b8063ce96cb77146105a6578063d905777e146105b9575f80fd5b8063c5224983116100b8578063c522498314610559578063c63d75b614610580578063c6e6f59214610593575f80fd5b8063b460af9414610533578063ba08765214610546575f80fd5b806395d89b4111610127578063a70354a11161010d578063a70354a1146104e7578063a9059cbb1461050d578063b3d7f6b914610520575f80fd5b806395d89b41146104d757806396ef7cc7146104df575f80fd5b806370a082311461046a57806382ebd6741461047d5780638f770ad01461049057806394bf804d146104c4575f80fd5b8063313ce567116101e75780634cdad506116101b757806369b1f17d1161019d57806369b1f17d146104245780636ce98c29146104375780636e553f6514610457575f80fd5b80634cdad506146103ea57806361ba1e9f146103fd575f80fd5b8063313ce5671461033d57806338d52e0f14610357578063402d267d1461039e5780634b3d1223146103b1575f80fd5b80630a28a4771161023c5780631baf4268116102225780631baf4268146102ee57806323b872dd146103035780632e302d7714610316575f80fd5b80630a28a477146102d357806318160ddd146102e6575f80fd5b806301e1d1141461026d57806306fdde031461028857806307a2d13a1461029d578063095ea7b3146102b0575b5f80fd5b610275610612565b6040519081526020015b60405180910390f35b6102906106d6565b60405161027f9190613d5f565b6102756102ab366004613daf565b610766565b6102c36102be366004613de7565b610832565b604051901515815260200161027f565b6102756102e1366004613daf565b610932565b6102756109f5565b6103016102fc366004613e11565b610ab7565b005b6102c3610311366004613e2c565b610b8c565b6102c37f000000000000000000000000000000000000000000000000000000000000000081565b610345610c95565b60405160ff909116815260200161027f565b7f00000000000000000000000000000000000000000000000000000000000000005b60405173ffffffffffffffffffffffffffffffffffffffff909116815260200161027f565b6102756103ac366004613e11565b610cc5565b6103b9610e23565b6040517fffffffff00000000000000000000000000000000000000000000000000000000909116815260200161027f565b6102756103f8366004613daf565b610f4f565b6103797f000000000000000000000000000000000000000000000000000000000000000081565b610301610432366004613e6a565b610f7f565b6006546103799073ffffffffffffffffffffffffffffffffffffffff1681565b610275610465366004613e8b565b6110d9565b610275610478366004613e11565b611262565b61030161048b366004613e11565b611346565b600654760100000000000000000000000000000000000000000000900461ffff1660405161ffff909116815260200161027f565b6102756104d2366004613e8b565b61143e565b6102906114f6565b610275611505565b7f0000000000000000000000000000000000000000000000000000000000000000610379565b6102c361051b366004613de7565b611531565b61027561052e366004613daf565b6115e1565b610275610541366004613eb9565b6116a4565b610275610554366004613eb9565b61182e565b6103797f000000000000000000000000000000000000000000000000000000000000000081565b61027561058e366004613e11565b6118e7565b6102756105a1366004613daf565b611a4e565b6102756105b4366004613e11565b611b11565b6102756105c7366004613e11565b611bd4565b6102756105da366004613ef8565b611c97565b6102756105ed366004613daf565b611d8a565b6008546103799073ffffffffffffffffffffffffffffffffffffffff1681565b5f7f01e1d11400000000000000000000000000000000000000000000000000000000806106426004843681613f24565b61064b91613f4b565b7fffffffff00000000000000000000000000000000000000000000000000000000161480156106955750600654740100000000000000000000000000000000000000009004600116155b156106cc576040517fab143c0600000000000000000000000000000000000000000000000000000000815260040160405180910390fd5b6005545b91505090565b6060600380546106e590613f91565b80601f016020809104026020016040519081016040528092919081815260200182805461071190613f91565b801561075c5780601f106107335761010080835404028352916020019161075c565b820191905f5260205f20905b81548152906001019060200180831161073f57829003601f168201915b5050505050905090565b5f7f07a2d13a00000000000000000000000000000000000000000000000000000000806107966004843681613f24565b61079f91613f4b565b7fffffffff00000000000000000000000000000000000000000000000000000000161480156107e95750600654740100000000000000000000000000000000000000009004600116155b15610820576040517fab143c0600000000000000000000000000000000000000000000000000000000815260040160405180910390fd5b61082983611dba565b91505b50919050565b6006545f90740100000000000000000000000000000000000000009004600116610888576040517fab143c0600000000000000000000000000000000000000000000000000000000815260040160405180910390fd5b600680547401000000000000000000000000000000000000000080820461fffe16027fffffffffffffffffffff0000ffffffffffffffffffffffffffffffffffffffff9091161790556108db8383611dc5565b600680547fffffffffffffffffffff0000ffffffffffffffffffffffffffffffffffffffff8116740100000000000000000000000000000000000000009182900461ffff1660011790910217905590505b92915050565b5f7f0a28a47700000000000000000000000000000000000000000000000000000000806109626004843681613f24565b61096b91613f4b565b7fffffffff00000000000000000000000000000000000000000000000000000000161480156109b55750600654740100000000000000000000000000000000000000009004600116155b156109ec576040517fab143c0600000000000000000000000000000000000000000000000000000000815260040160405180910390fd5b61082983611de6565b5f7f18160ddd0000000000000000000000000000000000000000000000000000000080610a256004843681613f24565b610a2e91613f4b565b7fffffffff0000000000000000000000000000000000000000000000000000000016148015610a785750600654740100000000000000000000000000000000000000009004600116155b15610aaf576040517fab143c0600000000000000000000000000000000000000000000000000000000815260040160405180910390fd5b6002546106d0565b610ac16001611df2565b50610aca6120c1565b60065473ffffffffffffffffffffffffffffffffffffffff908116911614610b1e576040517fea8e4eb500000000000000000000000000000000000000000000000000000000815260040160405180910390fd5b600880547fffffffffffffffffffffffff00000000000000000000000000000000000000001673ffffffffffffffffffffffffffffffffffffffff83169081179091556040517f88c79c8c1cfbe60a2f9f84c5935f83395219b873e5da61b9f5993096cb43a288905f90a250565b5f610b956120ca565b600654740100000000000000000000000000000000000000009004600116610be9576040517fab143c0600000000000000000000000000000000000000000000000000000000815260040160405180910390fd5b600680547401000000000000000000000000000000000000000080820461fffe16027fffffffffffffffffffff0000ffffffffffffffffffffffffffffffffffffffff909116179055610c3d84848461217c565b600680547fffffffffffffffffffff0000ffffffffffffffffffffffffffffffffffffffff8116740100000000000000000000000000000000000000009182900461ffff1660011790910217905590505b9392505050565b5f610cc0817f0000000000000000000000000000000000000000000000000000000000000000614009565b905090565b5f7f402d267d0000000000000000000000000000000000000000000000000000000080610cf56004843681613f24565b610cfe91613f4b565b7fffffffff0000000000000000000000000000000000000000000000000000000016148015610d485750600654740100000000000000000000000000000000000000009004600116155b15610d7f576040517fab143c0600000000000000000000000000000000000000000000000000000000815260040160405180910390fd5b6006545f90610dab90760100000000000000000000000000000000000000000000900461ffff16612233565b90507fffffffffffffffffffffffffffffffffffffffffffffffffffffffffffffffff8103610dfe577fffffffffffffffffffffffffffffffffffffffffffffffffffffffffffffffff5b92505061082c565b5f610e07610612565b9050818110610e1a575f9350505061082c565b90039392505050565b5f610e2c61227f565b600654740100000000000000000000000000000000000000009004600216610f2a575f610e57610612565b600654909150610e8490760100000000000000000000000000000000000000000000900461ffff16612233565b81118015610ea357506007546dffffffffffffffffffffffffffff1681115b15610eda576040517ff58f733a00000000000000000000000000000000000000000000000000000000815260040160405180910390fd5b600680547fffffffffffffffffffff0000ffffffffffffffffffffffffffffffffffffffff8116740100000000000000000000000000000000000000009182900461ffff16600217909102179055505b507f4b3d12230000000000000000000000000000000000000000000000000000000090565b5f7f4cdad50600000000000000000000000000000000000000000000000000000000806107966004843681613f24565b610f896001611df2565b50610f926120c1565b60065473ffffffffffffffffffffffffffffffffffffffff908116911614610fe6576040517fea8e4eb500000000000000000000000000000000000000000000000000000000815260040160405180910390fd5b8061ffff81161580159061101357506dffffffffffffffffffffffffffff61101161ffff8316612233565b115b1561104a576040517fa4160db800000000000000000000000000000000000000000000000000000000815260040160405180910390fd5b6006805461ffff8316760100000000000000000000000000000000000000000000027fffffffffffffffff0000ffffffffffffffffffffffffffffffffffffffffffff9091161790556040517fc94dcc78d10ed34ae1d00b07b7017f9d033245eb2e155ba31de6d69acf603e2a906110cd90849061ffff91909116815260200190565b60405180910390a15050565b5f6110e26120ca565b600654740100000000000000000000000000000000000000009004600116611136576040517fab143c0600000000000000000000000000000000000000000000000000000000815260040160405180910390fd5b600680547401000000000000000000000000000000000000000080820461fffe16027fffffffffffffffffffff0000ffffffffffffffffffffffffffffffffffffffff909116179055611187612387565b61119183836124c2565b90507f000000000000000000000000000000000000000000000000000000000000000073ffffffffffffffffffffffffffffffffffffffff1663a37d54af6040518163ffffffff1660e01b81526004015f604051808303815f87803b1580156111f8575f80fd5b505af115801561120a573d5f803e3d5ffd5b5050600680547fffffffffffffffffffff0000ffffffffffffffffffffffffffffffffffffffff8116740100000000000000000000000000000000000000009182900461ffff166001179091021790555061092c9050565b5f7f70a0823100000000000000000000000000000000000000000000000000000000806112926004843681613f24565b61129b91613f4b565b7fffffffff00000000000000000000000000000000000000000000000000000000161480156112e55750600654740100000000000000000000000000000000000000009004600116155b1561131c576040517fab143c0600000000000000000000000000000000000000000000000000000000815260040160405180910390fd5b73ffffffffffffffffffffffffffffffffffffffff83165f90815260208190526040902054610829565b6113506001611df2565b506113596120c1565b60065473ffffffffffffffffffffffffffffffffffffffff9081169116146113ad576040517fea8e4eb500000000000000000000000000000000000000000000000000000000815260040160405180910390fd5b60065473ffffffffffffffffffffffffffffffffffffffff82811691161461143b57600680547fffffffffffffffffffffffff00000000000000000000000000000000000000001673ffffffffffffffffffffffffffffffffffffffff83169081179091556040517f1c145a4cd16d4148579b0f2296884ac4aa47536e4ef10a32e1cdc0dc3dd20ea4905f90a25b50565b5f6114476120ca565b60065474010000000000000000000000000000000000000000900460011661149b576040517fab143c0600000000000000000000000000000000000000000000000000000000815260040160405180910390fd5b600680547401000000000000000000000000000000000000000080820461fffe16027fffffffffffffffffffff0000ffffffffffffffffffffffffffffffffffffffff9091161790556114ec612387565b611191838361261e565b6060600480546106e590613f91565b6006545f90610cc090760100000000000000000000000000000000000000000000900461ffff16612233565b5f61153a6120ca565b60065474010000000000000000000000000000000000000000900460011661158e576040517fab143c0600000000000000000000000000000000000000000000000000000000815260040160405180910390fd5b600680547401000000000000000000000000000000000000000080820461fffe16027fffffffffffffffffffff0000ffffffffffffffffffffffffffffffffffffffff9091161790556108db838361263d565b5f7fb3d7f6b900000000000000000000000000000000000000000000000000000000806116116004843681613f24565b61161a91613f4b565b7fffffffff00000000000000000000000000000000000000000000000000000000161480156116645750600654740100000000000000000000000000000000000000009004600116155b1561169b576040517fab143c0600000000000000000000000000000000000000000000000000000000815260040160405180910390fd5b61082983612710565b5f6116ad6120ca565b600654740100000000000000000000000000000000000000009004600116611701576040517fab143c0600000000000000000000000000000000000000000000000000000000815260040160405180910390fd5b600680547401000000000000000000000000000000000000000080820461fffe16027fffffffffffffffffffff0000ffffffffffffffffffffffffffffffffffffffff909116179055611752612387565b61175d84848461271c565b90507f000000000000000000000000000000000000000000000000000000000000000073ffffffffffffffffffffffffffffffffffffffff1663a37d54af6040518163ffffffff1660e01b81526004015f604051808303815f87803b1580156117c4575f80fd5b505af11580156117d6573d5f803e3d5ffd5b5050600680547fffffffffffffffffffff0000ffffffffffffffffffffffffffffffffffffffff8116740100000000000000000000000000000000000000009182900461ffff1660011790910217905550610c8e9050565b5f6118376120ca565b60065474010000000000000000000000000000000000000000900460011661188b576040517fab143c0600000000000000000000000000000000000000000000000000000000815260040160405180910390fd5b600680547401000000000000000000000000000000000000000080820461fffe16027fffffffffffffffffffff0000ffffffffffffffffffffffffffffffffffffffff9091161790556118dc612387565b61175d8484846127d1565b5f7fc63d75b600000000000000000000000000000000000000000000000000000000806119176004843681613f24565b61192091613f4b565b7fffffffff000000000000000000000000000000000000000000000000000000001614801561196a5750600654740100000000000000000000000000000000000000009004600116155b156119a1576040517fab143c0600000000000000000000000000000000000000000000000000000000815260040160405180910390fd5b6006545f906119cd90760100000000000000000000000000000000000000000000900461ffff16612233565b90507fffffffffffffffffffffffffffffffffffffffffffffffffffffffffffffffff8103611a1c577fffffffffffffffffffffffffffffffffffffffffffffffffffffffffffffffff610df6565b5f611a25610612565b9050818110611a38575f9350505061082c565b611a456105ed8284614022565b95945050505050565b5f7fc6e6f5920000000000000000000000000000000000000000000000000000000080611a7e6004843681613f24565b611a8791613f4b565b7fffffffff0000000000000000000000000000000000000000000000000000000016148015611ad15750600654740100000000000000000000000000000000000000009004600116155b15611b08576040517fab143c0600000000000000000000000000000000000000000000000000000000815260040160405180910390fd5b610829836128ca565b5f7fce96cb770000000000000000000000000000000000000000000000000000000080611b416004843681613f24565b611b4a91613f4b565b7fffffffff0000000000000000000000000000000000000000000000000000000016148015611b945750600654740100000000000000000000000000000000000000009004600116155b15611bcb576040517fab143c0600000000000000000000000000000000000000000000000000000000815260040160405180910390fd5b610829836128d5565b5f7fd905777e0000000000000000000000000000000000000000000000000000000080611c046004843681613f24565b611c0d91613f4b565b7fffffffff0000000000000000000000000000000000000000000000000000000016148015611c575750600654740100000000000000000000000000000000000000009004600116155b15611c8e576040517fab143c0600000000000000000000000000000000000000000000000000000000815260040160405180910390fd5b610829836128e8565b5f7fdd62ed3e0000000000000000000000000000000000000000000000000000000080611cc76004843681613f24565b611cd091613f4b565b7fffffffff0000000000000000000000000000000000000000000000000000000016148015611d1a5750600654740100000000000000000000000000000000000000009004600116155b15611d51576040517fab143c0600000000000000000000000000000000000000000000000000000000815260040160405180910390fd5b505073ffffffffffffffffffffffffffffffffffffffff9182165f90815260016020908152604080832093909416825291909152205490565b5f7fef8b30f70000000000000000000000000000000000000000000000000000000080611a7e6004843681613f24565b5f61092c825f6128f2565b5f80611dcf6120c1565b9050611ddc81858561292b565b5060019392505050565b5f61092c826001612938565b5f73ffffffffffffffffffffffffffffffffffffffff7f00000000000000000000000000000000000000000000000000000000000000001633036120ba575f7f000000000000000000000000000000000000000000000000000000000000000073ffffffffffffffffffffffffffffffffffffffff16633a1a3a1d6040518163ffffffff1660e01b8152600401602060405180830381865afa158015611e9a573d5f803e3d5ffd5b505050506040513d601f19601f82011682018060405250810190611ebe9190614035565b905077ff00000000000000000000000000000000000000000000008116151580611f00575076ff00000000000000000000000000000000000000000000811615155b80611f22575075ff000000000000000000000000000000000000000000811615155b15611f59576040517fea8e4eb500000000000000000000000000000000000000000000000000000000815260040160405180910390fd5b73ffffffffffffffffffffffffffffffffffffffff81168315610c8e576040517f442b172c00000000000000000000000000000000000000000000000000000000815273ffffffffffffffffffffffffffffffffffffffff82811660048301525f917f00000000000000000000000000000000000000000000000000000000000000009091169063442b172c90602401602060405180830381865afa158015612004573d5f803e3d5ffd5b505050506040513d601f19601f82011682018060405250810190612028919061404c565b905073ffffffffffffffffffffffffffffffffffffffff81161580159061207b57508173ffffffffffffffffffffffffffffffffffffffff168173ffffffffffffffffffffffffffffffffffffffff1614155b156120b2576040517fea8e4eb500000000000000000000000000000000000000000000000000000000815260040160405180910390fd5b509392505050565b5033919050565b5f610cc061295e565b7f000000000000000000000000000000000000000000000000000000000000000073ffffffffffffffffffffffffffffffffffffffff8116330361210b5750565b7f1f8b5215000000000000000000000000000000000000000000000000000000005f52306004523360245234604452608060645236608452365f60a4375f3660a401525f80601f19601f36011660a4015f34855af13d5f803e8080156121735760403d036040f35b3d5ffd5b505050565b5f80612189858585612a51565b6040517f4659103200000000000000000000000000000000000000000000000000000000815273ffffffffffffffffffffffffffffffffffffffff87811660048301529192507f0000000000000000000000000000000000000000000000000000000000000000909116906346591032906024015f604051808303815f87803b158015612214575f80fd5b505af1158015612226573d5f803e3d5ffd5b5092979650505050505050565b5f61ffff821680820361226857507fffffffffffffffffffffffffffffffffffffffffffffffffffffffffffffffff92915050565b6064603f8216600a0a600683901c02049392505050565b3373ffffffffffffffffffffffffffffffffffffffff7f00000000000000000000000000000000000000000000000000000000000000001614158061234e57507f000000000000000000000000000000000000000000000000000000000000000073ffffffffffffffffffffffffffffffffffffffff1663e21e537c6040518163ffffffff1660e01b8152600401602060405180830381865afa158015612328573d5f803e3d5ffd5b505050506040513d601f19601f8201168201806040525081019061234c91906140a3565b155b15612385576040517fea8e4eb500000000000000000000000000000000000000000000000000000000815260040160405180910390fd5b565b60065474010000000000000000000000000000000000000000900460021615806123fa57506006547fffffffffffffffffffffffffffffffffffffffffffffffffffffffffffffffff906123f890760100000000000000000000000000000000000000000000900461ffff16612233565b145b1561240157565b5f61240a610612565b600680547401000000000000000000000000000000000000000080820461fffd16027fffffffffffffffffffff0000ffffffffffffffffffffffffffffffffffffffff90911617905590506dffffffffffffffffffffffffffff81116124705780612480565b6dffffffffffffffffffffffffffff5b600780547fffffffffffffffffffffffffffffffffffff0000000000000000000000000000166dffffffffffffffffffffffffffff9290921691909117905550565b5f7fffffffffffffffffffffffffffffffffffffffffffffffffffffffffffffffff83036125bc577f000000000000000000000000000000000000000000000000000000000000000073ffffffffffffffffffffffffffffffffffffffff166370a0823161252e6120c1565b6040517fffffffff0000000000000000000000000000000000000000000000000000000060e084901b16815273ffffffffffffffffffffffffffffffffffffffff9091166004820152602401602060405180830381865afa158015612595573d5f803e3d5ffd5b505050506040513d601f19601f820116820180604052508101906125b99190614035565b92505b6125c583611d8a565b90506125da6125d26120c1565b838584612a7e565b5f831180156125e7575080155b1561092c576040517f9811e0c700000000000000000000000000000000000000000000000000000000815260040160405180910390fd5b5f612628836115e1565b905061092c6126356120c1565b838386612a7e565b5f806126498484612c1a565b90507f000000000000000000000000000000000000000000000000000000000000000073ffffffffffffffffffffffffffffffffffffffff16634659103261268f6120c1565b6040517fffffffff0000000000000000000000000000000000000000000000000000000060e084901b16815273ffffffffffffffffffffffffffffffffffffffff90911660048201526024015f604051808303815f87803b1580156126f2575f80fd5b505af1158015612704573d5f803e3d5ffd5b50929695505050505050565b5f61092c8260016128f2565b5f612728848484612c31565b6040517f4659103200000000000000000000000000000000000000000000000000000000815273ffffffffffffffffffffffffffffffffffffffff84811660048301529192507f0000000000000000000000000000000000000000000000000000000000000000909116906346591032906024015b5f604051808303815f87803b1580156127b4575f80fd5b505af11580156127c6573d5f803e3d5ffd5b505050509392505050565b5f7fffffffffffffffffffffffffffffffffffffffffffffffffffffffffffffffff84036128055761280282611262565b93505b612810848484612cc3565b90505f8411801561281f575080155b15612856576040517f32d971dc00000000000000000000000000000000000000000000000000000000815260040160405180910390fd5b6040517f4659103200000000000000000000000000000000000000000000000000000000815273ffffffffffffffffffffffffffffffffffffffff83811660048301527f0000000000000000000000000000000000000000000000000000000000000000169063465910329060240161279d565b5f61092c825f612938565b5f61092c6128e283611262565b5f6128f2565b5f61092c82611262565b5f610c8e620f4240612902610612565b61290c91906140bc565b620f42406129186109f5565b61292291906140bc565b85919085612d50565b6121778383836001612d92565b5f610c8e620f42406129486109f5565b61295291906140bc565b620f4240612918610612565b5f3373ffffffffffffffffffffffffffffffffffffffff7f0000000000000000000000000000000000000000000000000000000000000000168103612a4c576040517f18503a1e0000000000000000000000000000000000000000000000000000000081525f60048201527f000000000000000000000000000000000000000000000000000000000000000073ffffffffffffffffffffffffffffffffffffffff16906318503a1e906024016040805180830381865afa158015612a24573d5f803e3d5ffd5b505050506040513d601f19601f82011682018060405250810190612a4891906140cf565b5090505b919050565b5f80612a5b6120c1565b9050612a68858285612ed7565b612a73858585612f79565b506001949350505050565b7f00000000000000000000000000000000000000000000000000000000000000008015612ac2575060085473ffffffffffffffffffffffffffffffffffffffff1615155b15612c08576040517fd283e75f00000000000000000000000000000000000000000000000000000000815273ffffffffffffffffffffffffffffffffffffffff84811660048301525f917f00000000000000000000000000000000000000000000000000000000000000009091169063d283e75f90602401602060405180830381865afa158015612b55573d5f803e3d5ffd5b505050506040513d601f19601f82011682018060405250810190612b799190614035565b1115612c08576008545f90612ba49073ffffffffffffffffffffffffffffffffffffffff1685613022565b90505f82612bb186611262565b612bbb91906140bc565b9050612bcc8164e8d4a51000614102565b821015612c05576040517f736829f500000000000000000000000000000000000000000000000000000000815260040160405180910390fd5b50505b612c148484848461312a565b50505050565b5f80612c246120c1565b9050611ddc818585612f79565b5f80612c3c83611b11565b905080851115612ca3576040517ffe9cceec00000000000000000000000000000000000000000000000000000000815273ffffffffffffffffffffffffffffffffffffffff8416600482015260248101869052604481018290526064015b60405180910390fd5b5f612cad86610932565b9050611a45612cba6120c1565b868689856131e5565b5f80612cce83611bd4565b905080851115612d30576040517fb94abeec00000000000000000000000000000000000000000000000000000000815273ffffffffffffffffffffffffffffffffffffffff841660048201526024810186905260448101829052606401612c9a565b5f612d3a86610f4f565b9050611a45612d476120c1565b8686848a6131e5565b5f612d7d612d5d83613461565b8015612d7857505f8480612d7357612d73614067565b868809115b151590565b612d8886868661348d565b611a4591906140bc565b73ffffffffffffffffffffffffffffffffffffffff8416612de1576040517fe602df050000000000000000000000000000000000000000000000000000000081525f6004820152602401612c9a565b73ffffffffffffffffffffffffffffffffffffffff8316612e30576040517f94280d620000000000000000000000000000000000000000000000000000000081525f6004820152602401612c9a565b73ffffffffffffffffffffffffffffffffffffffff8085165f9081526001602090815260408083209387168352929052208290558015612c14578273ffffffffffffffffffffffffffffffffffffffff168473ffffffffffffffffffffffffffffffffffffffff167f8c5be1e5ebec7d5bd14f71427d1e84f3dd0314c0f7b2291e5b200ac8c7c3b92584604051612ec991815260200190565b60405180910390a350505050565b5f612ee28484611c97565b90507fffffffffffffffffffffffffffffffffffffffffffffffffffffffffffffffff8114612c145781811015612f6b576040517ffb8f41b200000000000000000000000000000000000000000000000000000000815273ffffffffffffffffffffffffffffffffffffffff841660048201526024810182905260448101839052606401612c9a565b612c1484848484035f612d92565b73ffffffffffffffffffffffffffffffffffffffff8316612fc8576040517f96c6fd1e0000000000000000000000000000000000000000000000000000000081525f6004820152602401612c9a565b73ffffffffffffffffffffffffffffffffffffffff8216613017576040517fec442f050000000000000000000000000000000000000000000000000000000081525f6004820152602401612c9a565b612177838383613562565b6040805173ffffffffffffffffffffffffffffffffffffffff83811660248084019190915283518084039091018152604490920183526020820180517bffffffffffffffffffffffffffffffffffffffffffffffffffffffff167f70a082310000000000000000000000000000000000000000000000000000000017905291515f9283928392918716916130b69190614119565b5f60405180830381855afa9150503d805f81146130ee576040519150601f19603f3d011682016040523d82523d5f602084013e6130f3565b606091505b5091509150818015613106575080516020145b15613122578080602001905181019061311f9190614035565b92505b505092915050565b6131777f00000000000000000000000000000000000000000000000000000000000000008530857f0000000000000000000000000000000000000000000000000000000000000000613709565b61318183826138ab565b8160055461318f91906140bc565b600555604080518381526020810183905273ffffffffffffffffffffffffffffffffffffffff80861692908716917fdcbc1c05240f31ff3ad067ef1ee35ce4997762752e3a095284754544f4c709d79101612ec9565b7f00000000000000000000000000000000000000000000000000000000000000006133a1576040517fd283e75f00000000000000000000000000000000000000000000000000000000815273ffffffffffffffffffffffffffffffffffffffff84811660048301525f917f00000000000000000000000000000000000000000000000000000000000000009091169063d283e75f90602401602060405180830381865afa158015613298573d5f803e3d5ffd5b505050506040513d601f19601f820116820180604052508101906132bc9190614035565b11156132f4576040517f7f3b354c00000000000000000000000000000000000000000000000000000000815260040160405180910390fd5b60085473ffffffffffffffffffffffffffffffffffffffff161561339c575f8161331d85611262565b6133279190614022565b6008549091505f9061334f9073ffffffffffffffffffffffffffffffffffffffff1686613022565b90506133608164e8d4a51000614102565b821015613399576040517f539e010e00000000000000000000000000000000000000000000000000000000815260040160405180910390fd5b50505b61344d565b60085473ffffffffffffffffffffffffffffffffffffffff161561344d575f816133ca85611262565b6133d49190614022565b90505f8111801561341457506133ef8164e8d4a51000614102565b6008546134129073ffffffffffffffffffffffffffffffffffffffff1686613022565b105b1561344b576040517f35f129ec00000000000000000000000000000000000000000000000000000000815260040160405180910390fd5b505b61345a8585858585613909565b5050505050565b5f600282600381111561347657613476614134565b6134809190614161565b60ff166001149050919050565b5f838302817fffffffffffffffffffffffffffffffffffffffffffffffffffffffffffffffff85870982811083820303915050805f036134e0578382816134d6576134d6614067565b0492505050610c8e565b8084116134f7576134f76003851502601118613a6b565b5f848688095f868103871696879004966002600389028118808a02820302808a02820302808a02820302808a02820302808a02820302808a02909103029181900381900460010186841190950394909402919094039290920491909117919091029150509392505050565b73ffffffffffffffffffffffffffffffffffffffff8316613599578060025f82825461358e91906140bc565b909155506136499050565b73ffffffffffffffffffffffffffffffffffffffff83165f908152602081905260409020548181101561361e576040517fe450d38c00000000000000000000000000000000000000000000000000000000815273ffffffffffffffffffffffffffffffffffffffff851660048201526024810182905260448101839052606401612c9a565b73ffffffffffffffffffffffffffffffffffffffff84165f9081526020819052604090209082900390555b73ffffffffffffffffffffffffffffffffffffffff82166136725760028054829003905561369d565b73ffffffffffffffffffffffffffffffffffffffff82165f9081526020819052604090208054820190555b8173ffffffffffffffffffffffffffffffffffffffff168373ffffffffffffffffffffffffffffffffffffffff167fddf252ad1be2c89b69c2b068fc378daa952ba7f163c4a11628f55a4df523b3ef836040516136fc91815260200190565b60405180910390a3505050565b5f8073ffffffffffffffffffffffffffffffffffffffff8316156137ca576040517f927da10500000000000000000000000000000000000000000000000000000000815273ffffffffffffffffffffffffffffffffffffffff8781166004830152888116602483015230604483015284169063927da10590606401606060405180830381865afa15801561379f573d5f803e3d5ffd5b505050506040513d601f19601f820116820180604052508101906137c391906141bc565b5090925090505b838273ffffffffffffffffffffffffffffffffffffffff16101580156137f85750428165ffffffffffff1610155b15613896576040517f36c7851600000000000000000000000000000000000000000000000000000000815273ffffffffffffffffffffffffffffffffffffffff87811660048301528681166024830152858116604483015288811660648301528416906336c78516906084015f604051808303815f87803b15801561387b575f80fd5b505af115801561388d573d5f803e3d5ffd5b505050506138a2565b6138a287878787613a7c565b50505050505050565b73ffffffffffffffffffffffffffffffffffffffff82166138fa576040517fec442f050000000000000000000000000000000000000000000000000000000081525f6004820152602401612c9a565b6139055f8383613562565b5050565b6040517f442b172c00000000000000000000000000000000000000000000000000000000815273ffffffffffffffffffffffffffffffffffffffff85811660048301525f917f00000000000000000000000000000000000000000000000000000000000000009091169063442b172c90602401602060405180830381865afa158015613997573d5f803e3d5ffd5b505050506040513d601f19601f820116820180604052508101906139bb919061404c565b905073ffffffffffffffffffffffffffffffffffffffff811615801590613a0e57508473ffffffffffffffffffffffffffffffffffffffff168173ffffffffffffffffffffffffffffffffffffffff1614155b15613a45576040517fe6c4247b00000000000000000000000000000000000000000000000000000000815260040160405180910390fd5b82600554613a539190614022565b600555613a638686868686613b05565b505050505050565b634e487b715f52806020526024601cfd5b60405173ffffffffffffffffffffffffffffffffffffffff8481166024830152838116604483015260648201839052612c149186918216906323b872dd906084015b604051602081830303815290604052915060e01b6020820180517bffffffffffffffffffffffffffffffffffffffffffffffffffffffff8381831617835250505050613c06565b8273ffffffffffffffffffffffffffffffffffffffff168573ffffffffffffffffffffffffffffffffffffffff1614613b4357613b43838683612ed7565b613b4d8382613ca5565b613b787f00000000000000000000000000000000000000000000000000000000000000008584613cff565b8273ffffffffffffffffffffffffffffffffffffffff168473ffffffffffffffffffffffffffffffffffffffff168673ffffffffffffffffffffffffffffffffffffffff167ffbde797d201c681b91056529119e0b02407c7bb96a4a2c75c01fc9667232c8db8585604051613bf7929190918252602082015260400190565b60405180910390a45050505050565b5f8060205f8451602086015f885af180613c25576040513d5f823e3d81fd5b50505f513d91508115613c3c578060011415613c56565b73ffffffffffffffffffffffffffffffffffffffff84163b155b15612c14576040517f5274afe700000000000000000000000000000000000000000000000000000000815273ffffffffffffffffffffffffffffffffffffffff85166004820152602401612c9a565b73ffffffffffffffffffffffffffffffffffffffff8216613cf4576040517f96c6fd1e0000000000000000000000000000000000000000000000000000000081525f6004820152602401612c9a565b613905825f83613562565b60405173ffffffffffffffffffffffffffffffffffffffff83811660248301526044820183905261217791859182169063a9059cbb90606401613abe565b5f5b83811015613d57578181015183820152602001613d3f565b50505f910152565b602081525f8251806020840152613d7d816040850160208701613d3d565b601f017fffffffffffffffffffffffffffffffffffffffffffffffffffffffffffffffe0169190910160400192915050565b5f60208284031215613dbf575f80fd5b5035919050565b73ffffffffffffffffffffffffffffffffffffffff8116811461143b575f80fd5b5f8060408385031215613df8575f80fd5b8235613e0381613dc6565b946020939093013593505050565b5f60208284031215613e21575f80fd5b8135610c8e81613dc6565b5f805f60608486031215613e3e575f80fd5b8335613e4981613dc6565b92506020840135613e5981613dc6565b929592945050506040919091013590565b5f60208284031215613e7a575f80fd5b813561ffff81168114610c8e575f80fd5b5f8060408385031215613e9c575f80fd5b823591506020830135613eae81613dc6565b809150509250929050565b5f805f60608486031215613ecb575f80fd5b833592506020840135613edd81613dc6565b91506040840135613eed81613dc6565b809150509250925092565b5f8060408385031215613f09575f80fd5b8235613f1481613dc6565b91506020830135613eae81613dc6565b5f8085851115613f32575f80fd5b83861115613f3e575f80fd5b5050820193919092039150565b7fffffffff0000000000000000000000000000000000000000000000000000000081358181169160048510156131225760049490940360031b84901b1690921692915050565b600181811c90821680613fa557607f821691505b60208210810361082c577f4e487b71000000000000000000000000000000000000000000000000000000005f52602260045260245ffd5b7f4e487b71000000000000000000000000000000000000000000000000000000005f52601160045260245ffd5b60ff818116838216019081111561092c5761092c613fdc565b8181038181111561092c5761092c613fdc565b5f60208284031215614045575f80fd5b5051919050565b5f6020828403121561405c575f80fd5b8151610c8e81613dc6565b7f4e487b71000000000000000000000000000000000000000000000000000000005f52601260045260245ffd5b80518015158114612a4c575f80fd5b5f602082840312156140b3575f80fd5b610c8e82614094565b8082018082111561092c5761092c613fdc565b5f80604083850312156140e0575f80fd5b82516140eb81613dc6565b91506140f960208401614094565b90509250929050565b808202811582820484141761092c5761092c613fdc565b5f825161412a818460208701613d3d565b9190910192915050565b7f4e487b71000000000000000000000000000000000000000000000000000000005f52602160045260245ffd5b5f60ff831680614198577f4e487b71000000000000000000000000000000000000000000000000000000005f52601260045260245ffd5b8060ff84160691505092915050565b805165ffffffffffff81168114612a4c575f80fd5b5f805f606084860312156141ce575f80fd5b83516141d981613dc6565b92506141e7602085016141a7565b91506141f5604085016141a7565b9050925092509256fea2646970667358221220ea36ded68e4037aa650658a697b0e2f84917e7319b8b49a418a0180b1c16bbcf64736f6c63430008180033","linkReferences":{}},"methodIdentifiers":{"EVC()":"a70354a1","allowance(address,address)":"dd62ed3e","approve(address,uint256)":"095ea7b3","asset()":"38d52e0f","balanceOf(address)":"70a08231","borrowVault()":"61ba1e9f","checkVaultStatus()":"4b3d1223","convertToAssets(uint256)":"07a2d13a","convertToShares(uint256)":"c6e6f592","decimals()":"313ce567","deposit(uint256,address)":"6e553f65","governorAdmin()":"6ce98c29","isRefVault()":"2e302d77","maxDeposit(address)":"402d267d","maxMint(address)":"c63d75b6","maxRedeem(address)":"d905777e","maxWithdraw(address)":"ce96cb77","mint(uint256,address)":"94bf804d","name()":"06fdde03","pairedVault()":"ff2833da","permit2Address()":"c5224983","previewDeposit(uint256)":"ef8b30f7","previewMint(uint256)":"b3d7f6b9","previewRedeem(uint256)":"4cdad506","previewWithdraw(uint256)":"0a28a477","redeem(uint256,address,address)":"ba087652","setGovernorAdmin(address)":"82ebd674","setPairedVault(address)":"1baf4268","setSupplyCap(uint16)":"69b1f17d","supplyCap()":"8f770ad0","supplyCapResolved()":"96ef7cc7","symbol()":"95d89b41","totalAssets()":"01e1d114","totalSupply()":"18160ddd","transfer(address,uint256)":"a9059cbb","transferFrom(address,address,uint256)":"23b872dd","withdraw(uint256,address,address)":"b460af94"},"id":80}