{"abi":[{"type":"constructor","inputs":[{"name":"_eVaultFactory","type":"address","internalType":"address"},{"name":"_evc","type":"address","internalType":"address"},{"name":"_refVault","type":"address","internalType":"address"},{"name":"_cstVault","type":"address","internalType":"address"},{"name":"_borrowVault","type":"address","internalType":"address"},{"name":"_cstToken","type":"address","internalType":"address"},{"name":"_cstExpiry","type":"uint256","internalType":"uint256"}],"stateMutability":"nonpayable"},{"type":"fallback","stateMutability":"nonpayable"},{"type":"function","name":"borrowVault","inputs":[],"outputs":[{"name":"","type":"address","internalType":"address"}],"stateMutability":"view"},{"type":"function","name":"cstExpiry","inputs":[],"outputs":[{"name":"","type":"uint256","internalType":"uint256"}],"stateMutability":"view"},{"type":"function","name":"cstToken","inputs":[],"outputs":[{"name":"","type":"address","internalType":"address"}],"stateMutability":"view"},{"type":"function","name":"cstVault","inputs":[],"outputs":[{"name":"","type":"address","internalType":"address"}],"stateMutability":"view"},{"type":"function","name":"eVaultFactory","inputs":[],"outputs":[{"name":"","type":"address","internalType":"contract GenericFactory"}],"stateMutability":"view"},{"type":"function","name":"evc","inputs":[],"outputs":[{"name":"","type":"address","internalType":"address"}],"stateMutability":"view"},{"type":"function","name":"isHookTarget","inputs":[],"outputs":[{"name":"","type":"bytes4","internalType":"bytes4"}],"stateMutability":"view"},{"type":"function","name":"refVault","inputs":[],"outputs":[{"name":"","type":"address","internalType":"address"}],"stateMutability":"view"},{"type":"error","name":"CSTExpired","inputs":[]},{"type":"error","name":"NoCSTCollateral","inputs":[]},{"type":"error","name":"NoREFCollateral","inputs":[]},{"type":"error","name":"REFCSTMismatch","inputs":[]}],"bytecode":{"object":"0x610160604052348015610010575f80fd5b506040516108cb3803806108cb83398101604081905261002f91610080565b6001600160a01b0396871660805294861660a05292851660c05290841660e05283166101005290911661012052610140526100fa565b80516001600160a01b038116811461007b575f80fd5b919050565b5f805f805f805f60e0888a031215610096575f80fd5b61009f88610065565b96506100ad60208901610065565b95506100bb60408901610065565b94506100c960608901610065565b93506100d760808901610065565b92506100e560a08901610065565b915060c0880151905092959891949750929550565b60805160a05160c05160e0516101005161012051610140516107586101735f395f818161012b015261055401525f61016001525f8181609d01526101ae01525f8181610235015261043501525f8181610187015261038001525f60da01525f818161020e0152818161028701526105e001526107585ff3fe608060405234801561000f575f80fd5b5060043610610086575f3560e01c806361ba1e9f1161005957806361ba1e9f146101a957806387439e04146101d0578063e1934a0714610209578063e9597c6b1461023057610086565b80630fb411e8146100d55780633067a4a9146101265780633f1e33771461015b5780634b8f1bdf14610182575b73ffffffffffffffffffffffffffffffffffffffff7f00000000000000000000000000000000000000000000000000000000000000001633036100d3576100d36100ce610257565b610339565b005b6100fc7f000000000000000000000000000000000000000000000000000000000000000081565b60405173ffffffffffffffffffffffffffffffffffffffff90911681526020015b60405180910390f35b61014d7f000000000000000000000000000000000000000000000000000000000000000081565b60405190815260200161011d565b6100fc7f000000000000000000000000000000000000000000000000000000000000000081565b6100fc7f000000000000000000000000000000000000000000000000000000000000000081565b6100fc7f000000000000000000000000000000000000000000000000000000000000000081565b6101d86105b0565b6040517fffffffff00000000000000000000000000000000000000000000000000000000909116815260200161011d565b6100fc7f000000000000000000000000000000000000000000000000000000000000000081565b6100fc7f000000000000000000000000000000000000000000000000000000000000000081565b6040517f297103880000000000000000000000000000000000000000000000000000000081523360048201525f907f000000000000000000000000000000000000000000000000000000000000000073ffffffffffffffffffffffffffffffffffffffff1690632971038890602401602060405180830381865afa1580156102e1573d5f803e3d5ffd5b505050506040513d601f19601f8201168201806040525081019061030591906106a9565b61030e57503390565b507fffffffffffffffffffffffffffffffffffffffffffffffffffffffffffffffec36013560601c90565b6040517f70a0823100000000000000000000000000000000000000000000000000000000815273ffffffffffffffffffffffffffffffffffffffff82811660048301525f917f0000000000000000000000000000000000000000000000000000000000000000909116906370a0823190602401602060405180830381865afa1580156103c7573d5f803e3d5ffd5b505050506040513d601f19601f820116820180604052508101906103eb91906106cf565b6040517f70a0823100000000000000000000000000000000000000000000000000000000815273ffffffffffffffffffffffffffffffffffffffff84811660048301529192505f917f000000000000000000000000000000000000000000000000000000000000000016906370a0823190602401602060405180830381865afa15801561047a573d5f803e3d5ffd5b505050506040513d601f19601f8201168201806040525081019061049e91906106cf565b9050815f036104d9576040517f5c37be1100000000000000000000000000000000000000000000000000000000815260040160405180910390fd5b805f03610512576040517f391bdc5200000000000000000000000000000000000000000000000000000000815260040160405180910390fd5b61051c828261068d565b610552576040517f2234fe3700000000000000000000000000000000000000000000000000000000815260040160405180910390fd5b7f000000000000000000000000000000000000000000000000000000000000000042106105ab576040517fd189e51b00000000000000000000000000000000000000000000000000000000815260040160405180910390fd5b505050565b6040517f297103880000000000000000000000000000000000000000000000000000000081523360048201525f907f000000000000000000000000000000000000000000000000000000000000000073ffffffffffffffffffffffffffffffffffffffff1690632971038890602401602060405180830381865afa15801561063a573d5f803e3d5ffd5b505050506040513d601f19601f8201168201806040525081019061065e91906106a9565b1561068857507f87439e040000000000000000000000000000000000000000000000000000000090565b505f90565b5f61069d8364e8d4a510006106e6565b82101590505b92915050565b5f602082840312156106b9575f80fd5b815180151581146106c8575f80fd5b9392505050565b5f602082840312156106df575f80fd5b5051919050565b80820281158282048414176106a3577f4e487b71000000000000000000000000000000000000000000000000000000005f52601160045260245ffdfea2646970667358221220fb623a0bcd44fa69d1aa11433f506d74c41bde750e0a7a3304bce42bac96037f64736f6c63430008180033","linkReferences":{}},"methodIdentifiers":{"borrowVault()":"61ba1e9f","cstExpiry()":"3067a4a9","cstToken()":"3f1e3377","cstVault()":"e9597c6b","eVaultFactory()":"e1934a07","evc()":"0fb411e8","isHookTarget()":"87439e04","refVault()":"4b8f1bdf"},"id":76}