{"abi":[{"type":"constructor","inputs":[{"name":"_base","type":"address","internalType":"address"},{"name":"_quote","type":"address","internalType":"address"}],"stateMutability":"nonpayable"},{"type":"function","name":"base","inputs":[],"outputs":[{"name":"","type":"address","internalType":"address"}],"stateMutability":"view"},{"type":"function","name":"getQuote","inputs":[{"name":"inAmount","type":"uint256","internalType":"uint256"},{"name":"base","type":"address","internalType":"address"},{"name":"quote","type":"address","internalType":"address"}],"outputs":[{"name":"","type":"uint256","internalType":"uint256"}],"stateMutability":"view"},{"type":"function","name":"getQuotes","inputs":[{"name":"inAmount","type":"uint256","internalType":"uint256"},{"name":"base","type":"address","internalType":"address"},{"name":"quote","type":"address","internalType":"address"}],"outputs":[{"name":"","type":"uint256","internalType":"uint256"},{"name":"","type":"uint256","internalType":"uint256"}],"stateMutability":"view"},{"type":"function","name":"name","inputs":[],"outputs":[{"name":"","type":"string","internalType":"string"}],"stateMutability":"view"},{"type":"function","name":"quote","inputs":[],"outputs":[{"name":"","type":"address","internalType":"address"}],"stateMutability":"view"},{"type":"error","name":"PriceOracle_InvalidConfiguration","inputs":[]},{"type":"error","name":"PriceOracle_NotSupported","inputs":[{"name":"base","type":"address","internalType":"address"},{"name":"quote","type":"address","internalType":"address"}]}],"bytecode":{"object":"0x60c060405234801561000f575f80fd5b5060405161055f38038061055f83398101604081905261002e9161009b565b6001600160a01b038216158061004b57506001600160a01b038116155b15610069576040516301a4c16560e21b815260040160405180910390fd5b6001600160a01b039182166080521660a0526100cc565b80516001600160a01b0381168114610096575f80fd5b919050565b5f80604083850312156100ac575f80fd5b6100b583610080565b91506100c360208401610080565b90509250929050565b60805160a0516104576101085f395f818161012f015281816101f9015261024f01525f818160e3015281816101a301526102a501526104575ff3fe608060405234801561000f575f80fd5b5060043610610064575f3560e01c80635001f3b51161004d5780635001f3b5146100de578063999b93af1461012a578063ae68676c14610151575f80fd5b80630579e61f1461006857806306fdde0314610095575b5f80fd5b61007b61007636600461037e565b610172565b604080519283526020830191909152015b60405180910390f35b6100d16040518060400160405280600d81526020017f4353545a65726f4f7261636c650000000000000000000000000000000000000081525081565b60405161008c91906103b7565b6101057f000000000000000000000000000000000000000000000000000000000000000081565b60405173ffffffffffffffffffffffffffffffffffffffff909116815260200161008c565b6101057f000000000000000000000000000000000000000000000000000000000000000081565b61016461015f36600461037e565b61018c565b60405190815260200161008c565b5f805f6101808686866101a0565b96879650945050505050565b5f6101988484846101a0565b949350505050565b5f7f000000000000000000000000000000000000000000000000000000000000000073ffffffffffffffffffffffffffffffffffffffff168373ffffffffffffffffffffffffffffffffffffffff1614801561024757507f000000000000000000000000000000000000000000000000000000000000000073ffffffffffffffffffffffffffffffffffffffff168273ffffffffffffffffffffffffffffffffffffffff16145b806102f357507f000000000000000000000000000000000000000000000000000000000000000073ffffffffffffffffffffffffffffffffffffffff168373ffffffffffffffffffffffffffffffffffffffff161480156102f357507f000000000000000000000000000000000000000000000000000000000000000073ffffffffffffffffffffffffffffffffffffffff168273ffffffffffffffffffffffffffffffffffffffff16145b61034d576040517f4ca22af000000000000000000000000000000000000000000000000000000000815273ffffffffffffffffffffffffffffffffffffffff80851660048301528316602482015260440160405180910390fd5b505f9392505050565b803573ffffffffffffffffffffffffffffffffffffffff81168114610379575f80fd5b919050565b5f805f60608486031215610390575f80fd5b833592506103a060208501610356565b91506103ae60408501610356565b90509250925092565b5f602080835283518060208501525f5b818110156103e3578581018301518582016040015282016103c7565b505f6040828601015260407fffffffffffffffffffffffffffffffffffffffffffffffffffffffffffffffe0601f830116850101925050509291505056fea26469706673582212205c060bc36f50150544df30e55b9b24e0c69091d7ff107dadb4656f2bc9a4ef0f64736f6c63430008180033","linkReferences":{}},"methodIdentifiers":{"base()":"5001f3b5","getQuote(uint256,address,address)":"ae68676c","getQuotes(uint256,address,address)":"0579e61f","name()":"06fdde03","quote()":"999b93af"},"id":78}