{"abi":[{"type":"constructor","inputs":[{"name":"baseRate_","type":"uint256","internalType":"uint256"},{"name":"slope1_","type":"uint256","internalType":"uint256"},{"name":"slope2_","type":"uint256","internalType":"uint256"},{"name":"kink_","type":"uint32","internalType":"uint32"}],"stateMutability":"nonpayable"},{"type":"function","name":"baseRate","inputs":[],"outputs":[{"name":"","type":"uint256","internalType":"uint256"}],"stateMutability":"view"},{"type":"function","name":"computeInterestRate","inputs":[{"name":"vault","type":"address","internalType":"address"},{"name":"cash","type":"uint256","internalType":"uint256"},{"name":"borrows","type":"uint256","internalType":"uint256"}],"outputs":[{"name":"","type":"uint256","internalType":"uint256"}],"stateMutability":"view"},{"type":"function","name":"computeInterestRateView","inputs":[{"name":"vault","type":"address","internalType":"address"},{"name":"cash","type":"uint256","internalType":"uint256"},{"name":"borrows","type":"uint256","internalType":"uint256"}],"outputs":[{"name":"","type":"uint256","internalType":"uint256"}],"stateMutability":"view"},{"type":"function","name":"kink","inputs":[],"outputs":[{"name":"","type":"uint256","internalType":"uint256"}],"stateMutability":"view"},{"type":"function","name":"slope1","inputs":[],"outputs":[{"name":"","type":"uint256","internalType":"uint256"}],"stateMutability":"view"},{"type":"function","name":"slope2","inputs":[],"outputs":[{"name":"","type":"uint256","internalType":"uint256"}],"stateMutability":"view"},{"type":"error","name":"E_IRMUpdateUnauthorized","inputs":[]}],"bytecode":{"object":"0x610100604052348015610010575f80fd5b5060405161054138038061054183398101604081905261002f9161004c565b60809390935260a09190915260c05263ffffffff1660e052610092565b5f805f806080858703121561005f575f80fd5b845193506020850151925060408501519150606085015163ffffffff81168114610087575f80fd5b939692955090935050565b60805160a05160c05160e05161044e6100f35f395f81816101250152818161020c0152818161029e01526102d001525f818160fe01526102fd01525f818160c40152818161023c015261027d01525f8181607801526101eb015261044e5ff3fe608060405234801561000f575f80fd5b506004361061006f575f3560e01c8063bca02c131161004d578063bca02c13146100e6578063d0134cb7146100f9578063fd2da33914610120575f80fd5b80631f68f20a146100735780632e34c872146100ac578063a62b75a8146100bf575b5f80fd5b61009a7f000000000000000000000000000000000000000000000000000000000000000081565b60405190815260200160405180910390f35b61009a6100ba366004610339565b610147565b61009a7f000000000000000000000000000000000000000000000000000000000000000081565b61009a6100f4366004610339565b61015b565b61009a7f000000000000000000000000000000000000000000000000000000000000000081565b61009a7f000000000000000000000000000000000000000000000000000000000000000081565b5f6101538484846101b2565b949350505050565b5f3373ffffffffffffffffffffffffffffffffffffffff8516146101ab576040517f35a4399400000000000000000000000000000000000000000000000000000000815260040160405180910390fd5b6101538484845b5f806101be83856103b0565b90505f81156101e557816101d663ffffffff866103c9565b6101e091906103e0565b6101e7565b5f5b90507f00000000000000000000000000000000000000000000000000000000000000007f000000000000000000000000000000000000000000000000000000000000000063ffffffff831611610278576102677f000000000000000000000000000000000000000000000000000000000000000063ffffffff84166103c9565b61027190826103b0565b905061032f565b6102c27f00000000000000000000000000000000000000000000000000000000000000007f00000000000000000000000000000000000000000000000000000000000000006103c9565b6102cc90826103b0565b90507f000000000000000000000000000000000000000000000000000000000000000063ffffffff831603610321817f00000000000000000000000000000000000000000000000000000000000000006103c9565b61032b90836103b0565b9150505b9695505050505050565b5f805f6060848603121561034b575f80fd5b833573ffffffffffffffffffffffffffffffffffffffff8116811461036e575f80fd5b95602085013595506040909401359392505050565b7f4e487b71000000000000000000000000000000000000000000000000000000005f52601160045260245ffd5b808201808211156103c3576103c3610383565b92915050565b80820281158282048414176103c3576103c3610383565b5f82610413577f4e487b71000000000000000000000000000000000000000000000000000000005f52601260045260245ffd5b50049056fea26469706673582212200f63de510e01dea37f1d13355187754868a1b5ecc3e1538b5d928b0888304f8364736f6c63430008180033","linkReferences":{}},"methodIdentifiers":{"baseRate()":"1f68f20a","computeInterestRate(address,uint256,uint256)":"bca02c13","computeInterestRateView(address,uint256,uint256)":"2e34c872","kink()":"fd2da339","slope1()":"a62b75a8","slope2()":"d0134cb7"},"id":31}